:1000000071C0000090C000008EC000008CC00000D5
:100010008AC000000C94510E0C94240E84C0000081
:1000200082C0000080C000007EC000007CC00000D4
:100030007AC0000078C0000076C0000074C00000E4
:1000400072C0000070C000006EC000006CC00000F4
:100050006AC0000068C0000066C0000064C0000004
:1000600062C000000C94B0125EC000005CC00000D2
:100070005AC0000058C0000056C0000054C0000024
:1000800052C0000050C000004EC000004CC0000034
:100090004AC0000048C0000046C0000044C0000044
:1000A00042C0000040C000003EC000003CC0000054
:1000B0003AC0000038C0000036C0000034C0000064
:1000C00032C0000030C000002EC000002CC0000074
:1000D0002AC0000028C0000026C0000024C0000084
:1000E00022C0000011241FBECFEFD1E2DEBFCDBF82
:1000F00000E00CBF14E1A0E0B2E0E4E2F5E500E0CE
:100100000BBF02C007900D92A830B107D9F724E1C8
:10011000A8E0B4E101C01D92AF38B207E1F70E9438
:10012000681C0C94902A6CCF0F931F93CF93DF938E
:10013000CDB7DEB7C057D1090FB6F894DEBF0FBEFA
:10014000CDBF80E090E0A0E8BFE389839A83AB83D2
:10015000BC8326E636E646E655E469817A818B81E2
:100160009C810E941E2ADC01CB018D839E83AF837C
:10017000B88720E030E040E85FE36D817E818F81C9
:1001800098850E94D02888232CF481E090E09A87FB
:1001900089873FC020E03FEF4FE757E46D817E81C4
:1001A0008F8198850E941A2A18164CF520E030E0BD
:1001B00040E251E469817A818B819C810E941E2AF0
:1001C000DC01CB01BC01CD010E943C29DC01CB014B
:1001D0009A8789870FC080E791E09C878B878B8502
:1001E0009C850197F1F79C878B8789859A85019774
:1001F0009A87898789859A85892B69F714C06D81CB
:100200007E818F8198850E943C29DC01CB019A87F1
:10021000898789859A859E878D878D859E8501979B
:10022000F1F79E878D8788E290E028E230E0F901BF
:1002300020812E7FFC01208388E290E028E230E0DC
:10024000F90120812D7FFC01208388E290E020E3EA
:10025000FC01208388E290E028E230E0F90120816F
:100260002460FC01208380E090E0A0EAB0E48F8766
:10027000988BA98BBA8B26E636E646E655E46F8561
:10028000788989899A890E941E2ADC01CB018B8B8F
:100290009C8BAD8BBE8B20E030E040E85FE36B8948
:1002A0007C898D899E890E94D02888232CF481E046
:1002B00090E0988F8F8B3FC020E03FEF4FE757E4EF
:1002C0006B897C898D899E890E941A2A18164CF5A3
:1002D00020E030E040E251E46F85788989899A898D
:1002E0000E941E2ADC01CB01BC01CD010E943C29E9
:1002F000DC01CB01988F8F8B0FC080E791E09A8F44
:10030000898F898D9A8D0197F1F79A8F898F8F89BF
:10031000988D0197988F8F8B8F89988D892B69F78E
:1003200014C06B897C898D899E890E943C29DC01DF
:10033000CB01988F8F8B8F89988D9C8F8B8F8B8D16
:100340009C8D0197F1F79C8F8B8F88E290E028E2DB
:1003500030E0F90120812B7FFC01208380E090E0D8
:10036000A0E8BFE38D8F9E8FAF8FB8A326E636E659
:1003700046E655E46D8D7E8D8F8D98A10E941E2AD4
:10038000DC01CB0189A39AA3ABA3BCA320E030E09E
:1003900040E85FE369A17AA18BA19CA10E94D028CB
:1003A00088232CF481E090E09EA38DA33FC020E041
:1003B0003FEF4FE757E469A17AA18BA19CA10E946E
:1003C0001A2A18164CF520E030E040E251E46D8D19
:1003D0007E8D8F8D98A10E941E2ADC01CB01BC016D
:1003E000CD010E943C29DC01CB019EA38DA30FC04F
:1003F00080E791E098A78FA38FA198A50197F1F7C7
:1004000098A78FA38DA19EA101979EA38DA38DA1D7
:100410009EA1892B69F714C069A17AA18BA19CA127
:100420000E943C29DC01CB019EA38DA38DA19EA13E
:100430009AA789A789A59AA50197F1F79AA789A7ED
:1004400088E290E028E230E0F90120812E7FFC0173
:10045000208388E290E028E230E0F90120812D7FBE
:10046000FC01208388E290E020E3FC01208388E205
:1004700090E028E230E0F90120812460FC01208333
:1004800080E090E0A0EAB0E48BA79CA7ADA7BEA750
:1004900026E636E646E655E46BA57CA58DA59EA529
:1004A0000E941E2ADC01CB018FA798ABA9ABBAAB87
:1004B00020E030E040E85FE36FA578A989A99AA918
:1004C0000E94D02888232CF481E090E09CAB8BAB79
:1004D0003FC020E03FEF4FE757E46FA578A989A917
:1004E0009AA90E941A2A18164CF520E030E040E242
:1004F00051E46BA57CA58DA59EA50E941E2ADC015A
:10050000CB01BC01CD010E943C29DC01CB019CAB9D
:100510008BAB0FC080E791E09EAB8DAB8DA99EA900
:100520000197F1F79EAB8DAB8BA99CA901979CAB72
:100530008BAB8BA99CA9892B69F714C06FA578A9EF
:1005400089A99AA90E943C29DC01CB019CAB8BAB09
:100550008BA99CA998AF8FAB8FA998AD0197F1F7A4
:1005600098AF8FAB88E290E028E230E0F90120817B
:100570002B7FFC01208380E090E0A0E8BFE389AFFF
:100580009AAFABAFBCAF26E636E646E655E469ADBA
:100590007AAD8BAD9CAD0E941E2ADC01CB019E0181
:1005A000235C3F4FF90180839183A283B38320E0D2
:1005B00030E040E85FE3CE01CD96FC0160817181BF
:1005C000828193810E94D02888234CF4CE018F5BD6
:1005D0009F4F21E030E0FC013183208367C020E0A1
:1005E0003FEF4FE757E4CE01CD96FC01608171816A
:1005F000828193810E941A2A18160CF046C020E0CE
:1006000030E040E251E469AD7AAD8BAD9CAD0E9423
:100610001E2ADC01CB018E010F5B1F4FBC01CD01F7
:100620000E943C29DC01CB01F8019183808324C026
:10063000CE018D5B9F4F20E731E0FC0131832083A9
:10064000CE018D5B9F4FFC01808191810197F1F775
:100650009E012D5B3F4FF90191838083CE018F5B1B
:100660009F4F9E012F5B3F4FF90120813181215027
:100670003109FC0131832083CE018F5B9F4FFC0148
:1006800080819181892BA1F62BC08E010F5B1F4FBA
:10069000CE01CD96FC0160817181828193810E949F
:1006A0003C29DC01CB01F80191838083CE018B5B77
:1006B0009F4F9E012F5B3F4FF90120813181FC014B
:1006C00031832083CE018B5B9F4FFC018081918120
:1006D0000197F1F79E012B5B3F4FF90191838083D6
:1006E00088E290E028E230E0F90120812E7FFC01D1
:1006F000208388E290E028E230E0F90120812D7F1C
:10070000FC01208388E290E020E3FC01208388E262
:1007100090E028E230E0F90120812460FC01208390
:100720009E01295B3F4F80E090E0A0EAB0E4F90130
:1007300080839183A283B3838E01055B1F4FCE011B
:10074000895B9F4F26E636E646E655E4FC0160816C
:100750007181828193810E941E2ADC01CB01F80104
:1007600080839183A283B383CE01855B9F4F20E07A
:1007700030E040E85FE3FC01608171818281938118
:100780000E94D02888234CF4CE01815B9F4F21E04A
:1007900030E0FC01318320836DC0CE01855B9F4F2B
:1007A00020E03FEF4FE757E4FC01608171818281D7
:1007B00093810E941A2A18160CF04AC0CE01895B58
:1007C0009F4F20E030E040E251E4FC016081718104
:1007D000828193810E941E2ADC01CB018E01015B84
:1007E0001F4FBC01CD010E943C29DC01CB01F80167
:1007F0009183808324C0CE018F5A9F4F20E731E040
:10080000FC0131832083CE018F5A9F4FFC018081F0
:1008100091810197F1F79E012F5A3F4FF901918382
:100820008083CE01815B9F4F9E01215B3F4FF90189
:100830002081318121503109FC0131832083CE0197
:10084000815B9F4FFC0180819181892BA1F62CC097
:100850008E01015B1F4FCE01855B9F4FFC016081C4
:100860007181828193810E943C29DC01CB01F801D6
:1008700091838083CE018D5A9F4F9E01215B3F4F14
:10088000F90120813181FC0131832083CE018D5A11
:100890009F4FFC01808191810197F1F79E012D5AB4
:1008A0003F4FF9019183808388E290E028E230E0B5
:1008B000F90120812B7FFC0120839E012B5A3F4FA1
:1008C00080E090E0A0E8BFE3F90180839183A283F8
:1008D000B3838E01075A1F4FCE018B5A9F4F26E6D6
:1008E00036E646E655E4FC016081718182819381A0
:1008F0000E941E2ADC01CB01F80180839183A28330
:10090000B383CE01875A9F4F20E030E040E85FE399
:10091000FC0160817181828193810E94D0288823AB
:100920004CF4CE01835A9F4F21E030E0FC0131832B
:1009300020836DC0CE01875A9F4F20E03FEF4FE7E5
:1009400057E4FC0160817181828193810E941A2A9F
:1009500018160CF04AC0CE018B5A9F4F20E030E0B1
:1009600040E251E4FC0160817181828193810E94A7
:100970001E2ADC01CB018E01035A1F4FBC01CD01A1
:100980000E943C29DC01CB01F8019183808324C0C3
:10099000CE01815A9F4F20E731E0FC013183208353
:1009A000CE01815A9F4FFC01808191810197F1F71F
:1009B0009E01215A3F4FF90191838083CE01835AD2
:1009C0009F4F9E01235A3F4FF901208131812150D1
:1009D0003109FC0131832083CE01835A9F4FFC01F2
:1009E00080819181892BA1F62CC08E01035A1F4F63
:1009F000CE01875A9F4FFC01608171818281938172
:100A00000E943C29DC01CB01F80191838083CE0157
:100A10008F599F4F9E01235A3F4FF9012081318109
:100A2000FC0131832083CE018F599F4FFC018081CF
:100A300091810197F1F79E012F593F4FF901918361
:100A4000808388E290E028E230E0F90120812E7F67
:100A5000FC01208388E290E028E230E0F901208167
:100A60002D7FFC01208388E290E020E2FC012083BE
:100A700088E290E028E230E0F90120812460FC0166
:100A800020839E012D593F4F80E090E0A0EAB0E422
:100A9000F90180839183A283B3838E0109591F4F8B
:100AA000CE018D599F4F26E636E646E655E4FC0119
:100AB00060817181828193810E941E2ADC01CB01B9
:100AC000F80180839183A283B383CE0189599F4F1C
:100AD00020E030E040E85FE3FC01608171818281C9
:100AE00093810E94D02888234CF4CE0185599F4FD2
:100AF00021E030E0FC01318320836DC0CE018959B3
:100B00009F4F20E03FEF4FE757E4FC016081718188
:100B1000828193810E941A2A18160CF04AC0CE01D5
:100B20008D599F4F20E030E040E251E4FC016081AC
:100B30007181828193810E941E2ADC01CB018E018A
:100B400005591F4FBC01CD010E943C29DC01CB019E
:100B5000F8019183808324C0CE0183599F4F20E701
:100B600031E0FC0131832083CE0183599F4FFC018A
:100B7000808191810197F1F79E0123593F4FF9013F
:100B800091838083CE0185599F4F9E0125593F4F08
:100B9000F9012081318121503109FC013183208309
:100BA000CE0185599F4FFC0180819181892BA1F64F
:100BB0002CC08E0105591F4FCE0189599F4FFC0152
:100BC00060817181828193810E943C29DC01CB018B
:100BD000F80191838083CE0181599F4F9E01255951
:100BE0003F4FF90120813181FC0131832083CE0107
:100BF00081599F4FFC01808191810197F1F79E01FE
:100C000021593F4FF9019183808388E290E028E2E7
:100C100030E0F90120812B7FFC012083C059DF4F98
:100C20000FB6F894DEBF0FBECDBFDF91CF911F91FD
:100C30000F910895CF93DF93CDB7DEB72E970FB600
:100C4000F894DEBF0FBECDBF6FDA80E090E0A0E881
:100C5000BFE389839A83AB83BC8326E636E646E608
:100C600055E469817A818B819C810E941E2ADC0176
:100C7000CB018D839E83AF83B88720E030E040E8CE
:100C80005FE36D817E818F8198850E94D0288823C3
:100C90002CF481E090E09A8789873FC020E03FEF05
:100CA0004FE757E46D817E818F8198850E941A2AD3
:100CB00018164CF520E030E040E251E469817A8179
:100CC0008B819C810E941E2ADC01CB01BC01CD01DD
:100CD0000E943C29DC01CB019A8789870FC080E7FD
:100CE00091E09C878B878B859C850197F1F79C878A
:100CF0008B8789859A8501979A87898789859A85BF
:100D0000892B69F714C06D817E818F8198850E943F
:100D10003C29DC01CB019A87898789859A859E8742
:100D20008D878D859E850197F1F79E878D8788E257
:100D300011D081E00FD086E00DD08EE00BD080E89E
:100D400009D02E960FB6F894DEBF0FBECDBFDF914F
:100D5000CF910895CF93DF93CDB7DEB76E970FB6DF
:100D6000F894DEBF0FBECDBF8E8F8E8D89838981B3
:100D7000807F898388E290E028E230E0F9012081D9
:100D80002F70FC01208388E290E028E230E0F90136
:100D900030812981232BFC01208388E290E028E226
:100DA00030E0F90120812E7FFC01208388E290E071
:100DB00028E230E0F90120812D7FFC01208388E2C8
:100DC00090E028E230E0F90120812460FC012083DA
:100DD00080E090E0A0EAB0E48A839B83AC83BD838B
:100DE00026E636E646E655E46A817B818C819D8164
:100DF0000E941E2ADC01CB018E839F83A887B987BE
:100E000020E030E040E85FE36E817F81888599854E
:100E10000E94D02888232CF481E090E09B878A8769
:100E20003FC020E03FEF4FE757E46E817F81888528
:100E300099850E941A2A18164CF520E030E040E20D
:100E400051E46A817B818C819D810E941E2ADC0194
:100E5000CB01BC01CD010E943C29DC01CB019B8769
:100E60008A870FC080E791E09D878C878C859D8560
:100E70000197F1F79D878C878A859B8501979B87D2
:100E80008A878A859B85892B69F714C06E817F814B
:100E9000888599850E943C29DC01CB019B878A8744
:100EA0008A859B859F878E878E859F850197F1F721
:100EB0009F878E8788E290E028E230E0F901208168
:100EC0002B7FFC0120838E8D8F708E8F8E8D82956F
:100ED000807F8E8F88E290E028E230E0F901208167
:100EE0002F70FC01208388E290E028E230E0F901D5
:100EF00030812E8D232BFC01208388E290E028E2B4
:100F000030E0F90120812E7FFC01208388E290E00F
:100F100028E230E0F90120812D7FFC01208388E266
:100F200090E028E230E0F90120812460FC01208378
:100F300080E090E0A0EAB0E4888B998BAA8BBB8B11
:100F400026E636E646E655E4688979898A899B89EA
:100F50000E941E2ADC01CB018C8B9D8BAE8BBF8B3C
:100F600020E030E040E85FE36C897D898E899F89CD
:100F70000E94D02888232CF481E090E0998F888FFC
:100F80003FC020E03FEF4FE757E46C897D898E89B1
:100F90009F890E941A2A18164CF520E030E040E2A2
:100FA00051E4688979898A899B890E941E2ADC011B
:100FB000CB01BC01CD010E943C29DC01CB01998F02
:100FC000888F0FC080E791E09B8F8A8F8A8D9B8DE1
:100FD0000197F1F79B8F8A8F888D998D0197998F53
:100FE000888F888D998D892B69F714C06C897D89CC
:100FF0008E899F890E943C29DC01CB01998F888FC3
:10100000888D998D9D8F8C8F8C8D9D8D0197F1F79B
:101010009D8F8C8F88E290E028E230E0F9012081FA
:101020002B7FFC0120836E960FB6F894DEBF0FBEB7
:10103000CDBFDF91CF910895CF93DF93CDB7DEB7CA
:101040006E970FB6F894DEBF0FBECDBF8E8F8E8D1C
:1010500089838981807F898388E290E028E230E07B
:10106000F90120812F70FC01208388E290E028E2C2
:1010700030E0F90130812981232BFC01208388E2B3
:1010800090E028E230E0F90120812160FC0120831A
:1010900088E290E028E230E0F90120812D7FFC0118
:1010A000208388E290E028E230E0F901208124608A
:1010B000FC01208380E090E0A0EAB0E48A839B8377
:1010C000AC83BD8326E636E646E655E46A817B813D
:1010D0008C819D810E941E2ADC01CB018E839F831F
:1010E000A887B98720E030E040E85FE36E817F8128
:1010F000888599850E94D02888232CF481E090E08F
:101100009B878A873FC020E03FEF4FE757E46E811F
:101110007F81888599850E941A2A18164CF520E04F
:1011200030E040E251E46A817B818C819D810E94A4
:101130001E2ADC01CB01BC01CD010E943C29DC014F
:10114000CB019B878A870FC080E791E09D878C87C2
:101150008C859D850197F1F79D878C878A859B8576
:1011600001979B878A878A859B85892B69F714C09D
:101170006E817F81888599850E943C29DC01CB01A5
:101180009B878A878A859B859F878E878E859F858B
:101190000197F1F79F878E8788E290E028E230E0A0
:1011A000F90120812B7FFC0120838E8D8F708E8F23
:1011B0008E8D8295807F8E8F88E290E028E230E0ED
:1011C000F90120812F70FC01208388E290E028E261
:1011D00030E0F90130812E8D232BFC01208388E241
:1011E00090E028E230E0F90120812160FC012083B9
:1011F00088E290E028E230E0F90120812D7FFC01B7
:10120000208388E290E028E230E0F9012081246028
:10121000FC01208380E090E0A0EAB0E4888B998B09
:10122000AA8BBB8B26E636E646E655E468897989C3
:101230008A899B890E941E2ADC01CB018C8B9D8BA5
:10124000AE8BBF8B20E030E040E85FE36C897D89A6
:101250008E899F890E94D02888232CF481E090E019
:10126000998F888F3FC020E03FEF4FE757E46C89AC
:101270007D898E899F890E941A2A18164CF520E0D4
:1012800030E040E251E4688979898A899B890E942B
:101290001E2ADC01CB01BC01CD010E943C29DC01EE
:1012A000CB01998F888F0FC080E791E09B8F8A8F49
:1012B0008A8D9B8D0197F1F79B8F8A8F888D998DF1
:1012C0000197998F888F888D998D892B69F714C024
:1012D0006C897D898E899F890E943C29DC01CB0124
:1012E000998F888F888D998D9D8F8C8F8C8D9D8DFA
:1012F0000197F1F79D8F8C8F88E290E028E230E033
:10130000F90120812B7FFC0120836E960FB6F894A3
:10131000DEBF0FBECDBFDF91CF910895CF93DF9396
:10132000CDB7DEB780E816DDDF91CF910895CF937A
:10133000DF931F921F92CDB7DEB789836A838981BD
:10134000882F90E08230910581F0833091051CF464
:10135000019739F016C08330910559F0049769F070
:1013600010C08A818158F6DC0CC08A818154F2DC7D
:1013700008C08A818D56EEDC04C08A818D52EADC79
:1013800000000F900F90DF91CF910895CF93DF93DE
:10139000CDB7DEB727970FB6F894DEBF0FBECDBF2F
:1013A0008A836B835D834C833F832E8319828A817A
:1013B000882319F08B81882311F4B0DF03C06B817F
:1013C0008A81B5DF8E819F81059719F089818130EF
:1013D000F9F48C819D81929582958F7089279F70F9
:1013E00089279C01A7E4B3E00E94812A96958795FE
:1013F0009695879596958795C0969093831480933C
:101400008214809182149091831416DE81E0898386
:101410008E819F81049721F08981813009F03FC03E
:101420008C819D81969587959695879596958795BC
:101430009C01A5ECB0E20E94812A929582958F7062
:1014400089279F70892790938514809384144091F5
:101450008414509185149A01ADECBCEC0E94812A51
:10146000969587959695879596958795880F991F58
:101470009C01220F331F220F331F820F931F9A01EB
:10148000281B390BC901C09690938E1480938D143C
:1014900080918D1490918E14CFDD81E089838E81AF
:1014A0009F81039719F089818130C9F58C819D81D5
:1014B00096958795969587959C01ABE7B4E10E9438
:1014C000812A9695879590938514809384144091F2
:1014D0008414509185149A01ADECBCEC0E94812AD1
:1014E000969587959695879596958795880F991FD8
:1014F0009C01220F331F220F331F820F931F9A016B
:10150000281B390BC901C09690938A1480938914C3
:101510008091891490918A148FDD81E089838E8176
:101520009F81029719F089818130C9F58C819D8155
:101530009C01ADECBCEC0E94812A9695879596950E
:101540008795969587959093851480938414409100
:101550008414509185149A01ADECBCEC0E94812A50
:10156000969587959695879596958795880F991F57
:101570009C01220F331F220F331F820F931F9A01EA
:10158000281B390BC901C096909388148093871447
:1015900080918714909188144FDD81E089838E813A
:1015A0009F81019719F08981813021F54C815D81FE
:1015B0009A01ADECBCEC0E94812A96958795969590
:1015C000879596958795880F991F9C01220F331F49
:1015D000220F331F820F931F9A01281B390BC90159
:1015E000C09690938C1480938B1480918B1490915F
:1015F0008C1422DD8E819F81069714F085E41CDD1A
:1016000027960FB6F894DEBF0FBECDBFDF91CF9106
:101610000895CF93DF93CDB7DEB7CC53D1400FB64B
:10162000F894DEBF0FBECDBF9E01275C3E4FF9018F
:1016300091838083CE01855C9E4FFC017183608322
:101640001E821D821C861B86CE01875C9E4F9E01DA
:10165000275C3E4FF9012081318121503109FC0185
:1016600031832083CE01855C9E4F9E01255C3E4FD9
:10167000F9012081318121503109FC01318320831E
:1016800018861F8247C0CE01875C9E4FFC01808177
:10169000918140E3489F9001499F300D11248F8133
:1016A0009885820F931F880F991F80509E4FFC01D1
:1016B000208131818F819885880F991FAE014F5FFE
:1016C0005F4F840F951F0C96FC01318320839E0190
:1016D0002F583F4F8F819885880F991F820F931F36
:1016E0009E01275C3E4FF90120813181FC0131834D
:1016F00020839E012B523F4F8F819885880F991F21
:10170000820F931FFC01118210828F8198850196B0
:1017100098878F8380910014909101142F813885D0
:10172000281739070CF4AFCFCE01875C9E4FFC0120
:1017300080819181880F991F9E012F5F3F4F820FFB
:10174000931F0C96FC01118210829E012B523F4F79
:10175000CE01875C9E4FFC0180819181880F991F8B
:10176000820F931F21E030E0FC013183208381E070
:1017700090E09A838983D6C08FE097E29C838B8325
:1017800018861F8238C08F819885880F991F9E0107
:101790002F5F3F4F820F931F0C96FC0120813181F8
:1017A0008B819C81281739070CF59E012B523F4FE6
:1017B0008F819885880F991F820F931FFC0180816C
:1017C0009181892B99F48F819885880F991F9E01AB
:1017D0002F5F3F4F820F931F0C96FC0180819181F8
:1017E0009C838B838F8198859E838D838F81988541
:1017F000019698878F8380910014909101142F8116
:101800003885281739070CF4BECF9E012B523F4F65
:101810008D819E81880F991F820F931F21E030E0F8
:10182000FC013183208318861F826DC09E012B52DC
:101830003F4F8F819885880F991F820F931FFC015E
:1018400080819181892B09F059C08D819E8140E36F
:10185000489F9001499F300D11248F819885820FF8
:10186000931F880F991F80509E4FFC01208131816A
:101870008B819C81280F391F8F819885880F991F34
:10188000AE014F5F5F4F840F951F0C96FC01808166
:1018900091812817390794F58D819E8140E3489FF7
:1018A0009001499F300D11248F819885820F931FDD
:1018B000880F991F80509E4FFC01208131818B81C0
:1018C0009C81280F391F8F819885880F991FAE0141
:1018D0004F5F5F4F840F951F0C96FC01318320836F
:1018E0009E012F583F4F8F819885880F991F820F37
:1018F000931F2D813E81FC01318320838F81988548
:10190000019698878F8380910014909101142F8104
:101910003885281739070CF489CF89819A81019677
:101920009A83898380910014909101149C01215025
:10193000310989819A81821793070CF41DCF18868B
:101940001F8251C0CE01855C9E4F2F813885FC01DE
:10195000808191812817390709F040C01C861B86B9
:101960008F8198859C012F5F3F4F8B859C85880FC9
:10197000991F8C5B9B4EFC01318320838F8198855E
:101980009A8789879E012F583F4F89859A85880FAE
:10199000991F820F931FFC01808191819A8789870B
:1019A0008B859C8501969C878B8789859A859C0170
:1019B0002F5F3F4F8B859C85880F991F8C5B9B4EBB
:1019C000FC0131832083CE01875C9E4F29853A85B7
:1019D000FC018081918128173907A1F68F819885B4
:1019E000019698878F8380910014909101142F8124
:1019F0003885281739070CF4A5CFC45CDE4F0FB625
:101A0000F894DEBF0FBECDBFDF91CF910895CF9385
:101A1000DF93CDB7DEB787E290E027E230E0F9014F
:101A20002081276FFC01208388E290E028E230E0EB
:101A3000F90120812078FC012083DF91CF91089566
:101A4000CF93DF93CDB7DEB78DE290E02DE230E0AB
:101A5000F90120812F77FC0120838EE290E02EE2B5
:101A600030E0F90120812068FC012083DF91CF91D3
:101A70000895CF93DF93CDB7DEB784E290E024E200
:101A800030E0F90120812062FC01208385E290E0B2
:101A900025E230E0F90120812062FC012083DF9102
:101AA000CF910895CF93DF93CDB7DEB780E390E079
:101AB000FC01108281E390E0FC01108287E091E05C
:101AC000FC01108288E091E0FC011082DF91CF914F
:101AD0000895CF93DF93CDB7DEB781E290E021E2A6
:101AE00030E0F90120812F60FC01208382E290E048
:101AF00022E230E0F9012081207FFC0120838AE08E
:101B000091E02AE031E0F90120812861FC01208385
:101B10008BE091E02BE031E0F90120812861FC01AC
:101B20002083DF91CF910895CF93DF93CDB7DEB7B8
:101B30008DE290E02DE230E0F90120812F7EFC0162
:101B400020838EE290E02EE230E0F90120812061D6
:101B5000FC012083DF91CF910895CF93DF93CDB720
:101B6000DEB78DE290E02DE230E0F90120812F7D9B
:101B7000FC0120838EE290E02EE230E0F90120812A
:101B80002062FC012083DF91CF910895CF93DF93F2
:101B9000CDB7DEB787E290E027E230E0F90120819F
:101BA0002860FC01208388E290E028E230E0F9011F
:101BB0002081277FFC012083DF91CF910895CF936F
:101BC000DF93CDB7DEB723DF6DDF3ADF52DF81DF92
:101BD000DDDFAADFC2DFDF91CF910895CF93DF93DE
:101BE000CDB7DEB7F8948AE690E02AE630E0F90156
:101BF00020812260FC0120838DE390E02DE330E022
:101C0000F90120812061FC0120837894DF91CF913C
:101C10000895CF93DF93CDB7DEB7F8948AE690E0CE
:101C20002AE630E0F90120812860FC0120838DE361
:101C300090E02DE330E0F90120812062FC01208357
:101C40007894DF91CF9108951F920F9200905F00DA
:101C50000F9211248F939F93AF93BF93CF93DF93F2
:101C6000CDB7DEB780910C1490910D14A0910E1495
:101C7000B0910F140196A11DB11D80930C14909387
:101C80000D14A0930E14B0930F14DF91CF91BF9158
:101C9000AF919F918F910F9000925F000F901F90D6
:101CA00018951F920F9200905F000F9211248F934E
:101CB0009F93AF93BF93CF93DF93CDB7DEB7809160
:101CC000081490910914A0910A14B0910B14019674
:101CD000A11DB11D8093081490930914A0930A14B8
:101CE000B0930B14DF91CF91BF91AF919F918F91E2
:101CF0000F9000925F000F901F901895CF93DF9385
:101D0000CDB7DEB72A970FB6F894DEBF0FBECDBFB2
:101D10009A87898719821A821B821C821D821E82E1
:101D20001F82188689859A85CC01A0E0B0E0BC01AD
:101D3000CD010E946829DC01CB0128E431EE42E8A4
:101D400050E4BC01CD010E94D428DC01CB01898381
:101D50009A83AB83BC8369817A818B819C810E9449
:101D60003C29DC01CB01CC01A0E0B0E08D839E8357
:101D7000AF83B88710920C1410920D1410920E14A9
:101D800010920F14109208141092091410920A1451
:101D900010920B1420910C1430910D1440910E14DC
:101DA00050910F1471E08D819E81AF81B885281705
:101DB00039074A075B0708F470E020910814309156
:101DC000091440910A1450910B1461E08D819E8199
:101DD000AF81B885281739074A075B0708F460E028
:101DE000872F862B882309F001C0D4CFEFD22A9603
:101DF0000FB6F894DEBF0FBECDBFDF91CF9108952F
:101E0000CF93DF93CDB7DEB72A970FB6F894DEBF36
:101E10000FBECDBF9A87898719821A821B821C82C6
:101E20001D821E821F82188689859A85CC01A0E0BA
:101E3000B0E0BC01CD010E946829DC01CB0125EE98
:101E400030ED4AEA50E4BC01CD010E94D428DC0107
:101E5000CB0189839A83AB83BC8369817A818B812F
:101E60009C810E943C29DC01CB018D839E83AF8342
:101E7000B88710920C1410920D1410920E14109238
:101E80000F1420910C1430910D1440910E145091A8
:101E90000F148D819E81AF81B88582179307A407A7
:101EA000B50708F401C0EDCF91D22A960FB6F89489
:101EB000DEBF0FBECDBFDF91CF910895CF93DF93EB
:101EC0001F921F92CDB7DEB79A8389835BD2898137
:101ED0009A8196DF0F900F90DF91CF910895CF9365
:101EE000DF931F921F92CDB7DEB79A83898353D2B7
:101EF00089819A8185DF0F900F90DF91CF910895AE
:101F0000CF93DF93CDB7DEB760970FB6F894DEBFFF
:101F10000FBECDBF988B8F878CE390E0CFDF56D27A
:101F200080E090E0A8ECB2E489839A83AB83BC8321
:101F300026E636E646E655E469817A818B819C8106
:101F40000E941E2ADC01CB018D839E83AF83B8875C
:101F500020E030E040E85FE36D817E818F819885ED
:101F60000E94D02888232CF481E090E09A8789870A
:101F70003FC020E03FEF4FE757E46D817E818F81C6
:101F800098850E941A2A18164CF520E030E040E2AD
:101F900051E469817A818B819C810E941E2ADC0137
:101FA000CB01BC01CD010E943C29DC01CB019A8709
:101FB00089870FC080E791E09C878B878B859C8504
:101FC0000197F1F79C878B8789859A8501979A8776
:101FD000898789859A85892B69F714C06D817E81EF
:101FE0008F8198850E943C29DC01CB019A878987E3
:101FF00089859A859E878D878D859E850197F1F7C6
:102000009E878D87DAD18F85988978DE60960FB6A6
:10201000F894DEBF0FBECDBFDF91CF910895CF936F
:10202000DF93CDB7DEB760970FB6F894DEBF0FBE73
:10203000CDBF988B8F878CE390E040DFC7D180E0E5
:1020400090E0A8ECB2E489839A83AB83BC8326E654
:1020500036E646E655E469817A818B819C810E944F
:102060001E2ADC01CB018D839E83AF83B88720E0DD
:1020700030E040E85FE36D817E818F8198850E942A
:10208000D02888232CF481E090E09A8789873FC08C
:1020900020E03FEF4FE757E46D817E818F81988587
:1020A0000E941A2A18164CF520E030E040E251E474
:1020B00069817A818B819C810E941E2ADC01CB017F
:1020C000BC01CD010E943C29DC01CB019A878987A4
:1020D0000FC080E791E09C878B878B859C8501975B
:1020E000F1F79C878B8789859A8501979A878987DD
:1020F00089859A85892B69F714C06D817E818F81CE
:1021000098850E943C29DC01CB019A8789878985C3
:102110009A859E878D878D859E850197F1F79E878D
:102120008D8742D18F859889E9DD60960FB6F89446
:10213000DEBF0FBECDBFDF91CF910895CF93DF9368
:102140001F92CDB7DEB7198286E290E0FC01808154
:10215000898389818860898388E290E02981FC01F4
:1021600020830F90DF91CF910895CF93DF931F923B
:10217000CDB7DEB7198286E290E0FC0180818983C9
:102180008981877F898388E290E02981FC0120830F
:102190000F90DF91CF910895CF93DF93CDB7DEB746
:1021A00081EC90E0FC01108280EC90E0FC01108258
:1021B00082EC90E026E0FC01208384EC90E02FE5A7
:1021C000FC01208385EC90E0FC01108281EC90E022
:1021D00028E9FC012083DF91CF910895CF93DF930D
:1021E000CDB7DEB781E291E0FC01108285E291E09B
:1021F0002FEFFC01208384E291E021E0FC012083A9
:1022000089E291E0FC01108288E291E02FEFFC016D
:1022100020838BE291E0FC0110828AE291E02FEFB3
:10222000FC0120838DE291E0FC0110828CE291E0C0
:102230002FEFFC01208380E291E029EAFC0120835A
:1022400081E291E02BE0FC012083DF91CF910895A2
:10225000CF93DF93CDB7DEB78AE790E0FC01108221
:102260008BE790E0FC0110828CE790E020E2FC011B
:10227000208380E590E020E8FC0120838AE790E05D
:1022800026E8FC012083DF91CF910895CF93DF935F
:102290001F921F92CDB7DEB78A838A81883028F0DB
:1022A0008BE790E028E0FC0120838A8187708A8395
:1022B0008CE790E02A812062FC0120838AE790E08D
:1022C0002AE730E0F90120812064FC01208300002E
:1022D0008AE790E0FC018081882F90E08071992747
:1022E000892BB1F389E790E0FC01808189838AE73B
:1022F00090E02AE730E0F90120812061FC01208391
:102300008BE790E0FC01108289810F900F90DF91A4
:10231000CF910895CF93DF931F921F92CDB7DEB771
:1023200089836A8388E291E02981FC0120838AE223
:1023300091E02A81FC0120830F900F90DF91CF91D3
:102340000895CF93DF931F921F92CDB7DEB78A8394
:1023500019828A818F708A8382E290E0FC018081F9
:1023600089838981807F898399818A81892B898367
:1023700082E290E02981FC0120830F900F90DF9191
:10238000CF910895CF93DF93CDB7DEB786E0D9DF45
:10239000DF91CF910895CF93DF93CDB7DEB789E07A
:1023A000D0DFDF91CF910895CF93DF93CDB7DEB724
:1023B0008AE0C7DFDF91CF910895CF93DF93CDB748
:1023C000DEB785E0BEDFDF91CF910895CF93DF9335
:1023D000CDB7DEB780E0B5DFDF91CF910895CF9321
:1023E000DF93CDB7DEB784E0ACDFDF91CF91089506
:1023F000CF93DF93CDB7DEB782E0A3DFDF91CF913C
:102400000895CF93DF93CDB7DEB781E890E0FC016C
:10241000108285E890E02CEFFC01208384E890E0B6
:1024200021E0FC01208389E890E023E0FC01208387
:1024300088E890E02FEFFC0120838BE890E023E018
:10244000FC0120838AE890E02FEFFC0120838DE8D7
:1024500090E023E0FC0120838CE890E02FEFFC016A
:10246000208387E890E023E0FC01208386E890E069
:102470002FEFFC01208380E890E02BEAFC01208311
:1024800082E890E0FC01108281E890E02CE0FC0101
:102490002083DF91CF910895CF93DF93CDB7DEB73F
:1024A000F8948DDBD5DE9ADE77DEABDF97DBB1DB30
:1024B0007894DF91CF9108950F931F93CF93DF937B
:1024C00000D01F921F92CDB7DEB78D8319821A827A
:1024D0001B821C828D81882F90E0A0E0B0E0BC01BF
:1024E000CD010E946829DC01CB012BE734E14EEEDF
:1024F0005FE3BC01CD010E94D428DC01CB0120E0C8
:1025000030E04CE052E4BC01CD010E946C28DC01BB
:10251000CB0189839A83AB83BC8389E890E0FC017B
:10252000108208E810E069817A818B819C810E9489
:102530003C29DC01CB01F80180830F900F900F90B4
:102540000F900F90DF91CF911F910F910895CF932E
:10255000DF93CDB7DEB784E5AFDFDF91CF9108958C
:102560001F920F9200905F000F92112400905B0069
:102570000F928F939F93EF93FF93CF93DF93CDB7FA
:10258000DEB786EC90E0FC018081882F90E090938C
:1025900011148093101480911014909111148F3F96
:1025A000910549F48091041490910514019690933B
:1025B000051480930414DF91CF91FF91EF919F91C7
:1025C0008F910F9000925B000F9000925F000F9030
:1025D0001F901895CF93DF9300D000D0CDB7DEB712
:1025E0009A8389837C836B835E834D8389819A81FF
:1025F000029759F48B819C81039739F48D819E81D8
:10260000839719F48FE390E00ADD89819A8183979B
:1026100059F48B819C81039739F48D819E810297B7
:1026200019F48FE390E06CDC89819A81029759F468
:102630008B819C81039739F48D819E81849719F455
:102640008BE790E0ECDC89819A81849759F48B8147
:102650009C81039739F48D819E81029719F48DE74F
:1026600090E04EDC89819A81049759F48B819C819A
:10267000039739F48D819E81839719F48BE790E05D
:102680003FDC89819A81839759F48B819C810397E0
:1026900039F48D819E81049719F48DE790E0BFDCB9
:1026A00089819A81049759F48B819C81039739F42D
:1026B0008D819E81849719F48FE390E021DC8981DC
:1026C0009A81849759F48B819C81039739F48D8189
:1026D0009E81049719F48FE390E0A1DC89819A81AF
:1026E000849759F48B819C81039739F48D819E8165
:1026F000839719F48BE790E092DC89819A81839724
:1027000059F48B819C81039739F48D819E81849744
:1027100019F48BE790E0F4DB89819A81039759F4EF
:102720008B819C81839739F48D819E81849719F4E4
:102730008BE790E074DC89819A81849759F48B81CE
:102740009C81839739F48D819E81039719F48BE7DF
:1027500090E0D6DB89819A81889759F48B819C819E
:10276000839739F48D819E81849719F48FE390E0EB
:10277000C7DB89819A81849759F48B819C818397E7
:1027800039F48D819E81889719F48FE390E047DCBE
:1027900089819A81839759F48B819C81889739F438
:1027A0008D819E81879719F48FE390E038DC8981D1
:1027B0009A81879759F48B819C81889739F48D8110
:1027C0009E81839719F48FE390E09ADB89819A8147
:1027D000839759F48B819C81889739F48D819E81F0
:1027E000829719F48FE390E08BDB89819A8182973D
:1027F00059F48B819C81889739F48D819E818397D0
:1028000019F48FE390E00BDC89819A81829759F467
:102810008B819C81889739F48D819E81879719F4EB
:102820008FE390E06DDB89819A81879759F48B81E2
:102830009C81889739F48D819E81829719F48FE36A
:1028400090E0EDDB89819A81879759F48B819C8197
:10285000889739F48D819E81899719F48BE790E0F0
:10286000DEDB89819A81899759F48B819C818897D5
:1028700039F48D819E81879719F48BE790E040DBD6
:1028800089819A81829759F48B819C81889739F448
:102890008D819E81899719F48BE790E031DB8981E6
:1028A0009A81899759F48B819C81889739F48D811D
:1028B0009E81829719F48BE790E0B1DB89819A8140
:1028C000839759F48B819C81849739F48D819E8103
:1028D000859719F48FE390E013DB89819A818597BE
:1028E00059F48B819C81849739F48D819E818397E3
:1028F00019F48FE390E093DB89819A81039759F46F
:102900008B819C81849739F48D819E81839719F402
:102910008BE790E0F5DA89819A81839759F48B816E
:102920009C81849739F48D819E81039719F48BE7FC
:1029300090E0E6DA89819A81849759F48B819C81B1
:10294000859739F48D819E81869719F48FE390E005
:10295000D7DA89819A81869759F48B819C818597F2
:1029600039F48D819E81849719F48FE390E057DBD1
:1029700089819A81499759F48B819C81859739F493
:102980008D819E81C09719F48BE790E048DB8981A7
:102990009A81C09759F48B819C81859739F48D81F8
:1029A0009E81499719F48BE790E0AADA89819A8190
:1029B000849759F48B819C81859739F48D819E8110
:1029C000499719F48FE390E02ADB89819A8149972E
:1029D00059F48B819C81859739F48D819E818497F0
:1029E00019F48FE390E08CDA89819A81869759F403
:1029F0008B819C81859739F48D819E81C09719F4D4
:102A00008BE790E07DDA89819A81C09759F48B81B8
:102A10009C81859739F48D819E81869719F48BE787
:102A200090E06EDA89819A81499759F48B819C8173
:102A3000859739F48D819E81869719F48FE390E014
:102A4000EEDA89819A81869759F48B819C818597EA
:102A500039F48D819E81499719F48FE390E050DA23
:102A600089819A81489759F48B819C81479739F4E1
:102A70008D819E81499719F48BE790E041DA898135
:102A80009A81499759F48B819C81479739F48D81BC
:102A90009E81489719F48DE790E0C1DA89819A8187
:102AA000489759F48B819C81479739F48D819E8199
:102AB0004A9719F48FE390E023DA89819A814A9743
:102AC00059F48B819C81479739F48D819E81489779
:102AD00019F48FE390E0A3DA89819A81469759F43B
:102AE0008B819C81479739F48D819E814A9719F497
:102AF0008BE790E094DA89819A814A9759F48B8127
:102B00009C81479739F48D819E81469719F48DE712
:102B100090E0F6D989819A81469759F48B819C81FE
:102B2000479739F48D819E81499719F48FE390E09E
:102B300076DA89819A81499759F48B819C814797EC
:102B400039F48D819E81469719F48FE390E0D8D9AE
:102B500089819A81499759F48B819C81479739F4EF
:102B60008D819E814A9719F48BE790E0C9D98981BC
:102B70009A814A9759F48B819C81479739F48D81CA
:102B80009E81499719F48BE790E049DA89819A810F
:102B90004A9759F48B819C81C09739F48D819E812D
:102BA0008F9719F48FE390E0ABD989819A818F9741
:102BB00059F48B819C81C09739F48D819E814A970D
:102BC00019F48FE390E02BDA89819A814A9759F4BE
:102BD0008B819C81C09739F48D819E81859719F4F2
:102BE0008BE790E08DD989819A81859759F48B8103
:102BF0009C81C09739F48D819E814A9719F48BE7A7
:102C000090E00DDA89819A814A9759F48B819C81F1
:102C1000C09739F48D819E814B9719F48FE390E032
:102C2000FED989819A814B9759F48B819C81C097F9
:102C300039F48D819E814A9719F48FE390E060D931
:102C400089819A814B9759F48B819C81C09739F483
:102C50008D819E818F9719F48FE390E0E0D989816F
:102C60009A818F9759F48B819C81C09739F48D811B
:102C70009E814B9719F48FE390E042D989819A8124
:102C8000859759F48B819C81C09739F48D819E8101
:102C90008F9719F48BE790E033D989819A818F97C8
:102CA00059F48B819C81C09739F48D819E818597E1
:102CB00019F48BE790E0B3D989819A814C9759F444
:102CC0008B819C814B9739F48D819E81C09719F43B
:102CD0008FE390E0A4D989819A81C09759F48B81C0
:102CE0009C814B9739F48D819E814C9719F48FE329
:102CF00090E006D989819A81439759F48B819C8110
:102D00004B9739F48D819E814C9719F48BE790E0B5
:102D100086D989819A814C9759F48B819C814B97F4
:102D200039F48D819E81439719F48BE790E0E8D8C0
:102D300089819A81439759F48B819C814C9739F40E
:102D40008D819E814B9719F48BE790E0D9D88981CA
:102D50009A814B9759F48B819C814C9739F48D81E2
:102D60009E81439719F48BE790E059D989819A8124
:102D70008D9759F48B819C814C9739F48D819E817C
:102D80004B9719F48FE390E04AD989819A814B9748
:102D900059F48B819C814C9739F48D819E818D975C
:102DA00019F48FE390E0ACD889819A81449759F463
:102DB0008B819C81439739F48D819E814B9719F4C7
:102DC0008BE790E09DD889819A814B9759F48B814C
:102DD0009C81439739F48D819E81449719F48DE746
:102DE00090E01DD989819A81449759F48B819C8107
:102DF000439739F48D819E814C9719F48FE390E0CD
:102E00007FD889819A814C9759F48B819C81439713
:102E100039F48D819E81449719F48FE390E0FFD8B7
:102E200089819A81429759F48B819C81439739F427
:102E30008D819E814B9719F48FE390E0F0D88981C2
:102E40009A814B9759F48B819C81439739F48D81FA
:102E50009E81429719F48FE390E052D889819A813C
:102E6000429759F48B819C81439739F48D819E81DF
:102E70004C9719F48BE790E0D2D889819A814C97CE
:102E800059F48B819C81439739F48D819E814297BF
:102E900019F48DE790E034D889819A814B9759F4E1
:102EA0008B819C81439739F48D819E814C9719F4D5
:102EB0008BE790E025D889819A814C9759F48B81D2
:102EC0009C81439739F48D819E814B9719F48BE750
:102ED00090E0A5D889819A814C9759F48B819C8187
:102EE0008D9739F48D819E818E9719F48FE390E050
:102EF00007D889819A818E9759F48B819C818D970F
:102F000039F48D819E814C9719F48FE390E087D836
:102F100089819A814C9759F48B819C818D9739F4E2
:102F20008D819E814D9719F48FE390E078D8898147
:102F30009A814D9761F48B819C818D9741F48D81AD
:102F40009E814C9721F48FE390E00E94800F89814D
:102F50009A818E9761F48B819C818D9741F48D814C
:102F60009E814D9721F48FE390E00E94800F89812C
:102F70009A814D9759F48B819C818D9739F48D817D
:102F80009E818E9719F48FE390E049D889819A81C8
:102F90008C9759F48B819C818D9739F48D819E811A
:102FA0008E9719F48BE790E03AD889819A818E97B1
:102FB00061F48B819C818D9741F48D819E818C97EA
:102FC00021F48BE790E00E94800F89819A818C9791
:102FD00061F48B819C818D9741F48D819E814D9709
:102FE00021F48BE790E00E94800F89819A814D97B0
:102FF00059F48B819C818D9739F48D819E818C97BA
:1030000019F48BE790E00BD889819A814D9761F490
:103010008B819C810F9741F48D819E814E9721F485
:103020008BE790E00E94800F89819A814E9761F42E
:103030008B819C810F9741F48D819E814D9721F466
:103040008BE790E00E940F1089819A814D9761F47F
:103050008B819C810F9741F48D819E81409721F453
:103060008DE790E00E940F1089819A81409761F46A
:103070008B819C810F9741F48D819E814D9721F426
:103080008BE790E00E94800F89819A814D9761F4CF
:103090008B819C810F9741F48D819E810E9721F445
:1030A0008FE390E00E94800F89819A810E9761F4EE
:1030B0008B819C810F9741F48D819E814D9721F4E6
:1030C0008FE390E00E940F1089819A81409761F40C
:1030D0008B819C810F9741F48D819E814E9721F4C5
:1030E0008FE390E00E94800F89819A814E9761F46E
:1030F0008B819C810F9741F48D819E81409721F4B3
:103100008FE390E00E940F1089819A810E9761F4FD
:103110008B819C810F9741F48D819E814E9721F484
:103120008BE790E00E94800F89819A814E9761F42D
:103130008B819C810F9741F48D819E810E9721F4A4
:103140008DE790E00E940F1089819A814E9761F47B
:103150008B819C818C9741F48D819E818D9721F488
:103160008BE790E00E94800F89819A818D9761F4AE
:103170008B819C818C9741F48D819E814E9721F4A7
:103180008BE790E00E940F1089819A814E9761F43D
:103190008B819C818C9741F48D819E814F9721F486
:1031A0008FE390E00E940F1089819A814F9761F41C
:1031B0008B819C818C9741F48D819E814E9721F467
:1031C0008FE390E00E94800F89819A814E9761F48D
:1031D0008B819C818C9741F48D819E818B9721F40A
:1031E0008FE390E00E94800F89819A818B9761F430
:1031F0008B819C818C9741F48D819E814E9721F427
:103200008FE390E00E940F1089819A818B9761F47F
:103210008B819C818C9741F48D819E814F9721F405
:103220008FE390E00E94800F89819A814F9761F42B
:103230008B819C818C9741F48D819E818B9721F4A9
:103240008FE390E00E940F1089819A818B9761F43F
:103250008B819C818C9741F48D819E818D9721F487
:103260008BE790E00E940F1089819A818D9761F41D
:103270008B819C818C9741F48D819E818B9721F469
:103280008BE790E00E94800F89819A818C9761F48E
:103290008B819C814F9741F48D819E81809721F491
:1032A0008FE390E00E94800F89819A81809761F47A
:1032B0008B819C814F9741F48D819E818C9721F465
:1032C0008FE390E00E940F1089819A81809761F4CA
:1032D0008B819C814F9741F48D819E810B9721F4C6
:1032E0008BE790E00E94800F89819A810B9761F4AF
:1032F0008B819C814F9741F48D819E81809721F431
:103300008BE790E00E940F1089819A810B9761F4FE
:103310008B819C81809741F48D819E814F9721F410
:103320008BE790E00E94800F89819A814F9761F42A
:103330008B819C81809741F48D819E810B9721F434
:103340008BE790E00E940F1089819A814F9761F47A
:103350008B819C81809741F48D819E81899721F496
:103360008FE390E00E94800F89819A81899761F4B0
:103370008B819C81809741F48D819E814F9721F4B0
:103380008FE390E00E940F1089819A81809761F409
:103390008B819C810B9741F48D819E814F9721F405
:1033A0008BE790E00E940F1089819A814F9761F41A
:1033B0008B819C810B9741F48D819E810C9721F428
:1033C0008DE790E00E940F1089819A810C9761F43B
:1033D0008B819C810B9741F48D819E814F9721F4C5
:1033E0008BE790E00E94800F89819A810A9761F4AF
:1033F0008B819C810B9741F48D819E81809721F474
:103400008BE790E00E940F1089819A81809761F488
:103410008B819C810B9741F48D819E810A9721F4C9
:103420008DE790E00E94800F89819A810C9761F46A
:103430008B819C810B9741F48D819E81809721F433
:103440008FE390E00E94800F89819A81809761F4D8
:103450008B819C810B9741F48D819E810C9721F487
:103460008FE390E00E940F1089819A810A9761F49E
:103470008B819C810B9741F48D819E814F9721F424
:103480008FE390E00E940F1089819A814F9761F439
:103490008B819C810B9741F48D819E810A9721F449
:1034A0008FE390E00E94800F89819A818A9761F46E
:1034B0008B819C81899741F48D819E81889721F42D
:1034C0008BE790E00E94800F89819A81889761F450
:1034D0008B819C81899741F48D819E818A9721F40B
:1034E0008BE790E00E940F1089819A818A9761F49E
:1034F0008B819C81899741F48D819E81809721F4F5
:103500008BE790E00E94800F89819A81809761F417
:103510008B819C81899741F48D819E818A9721F4CA
:103520008FE390E00E94800F89819A818A9761F4ED
:103530008B819C81899741F48D819E81819721F4B3
:103540008FE390E00E94800F89819A81819761F4D6
:103550008B819C81899741F48D819E818A9721F48A
:103560008FE390E00E940F1089819A81809761F427
:103570008B819C81899741F48D819E81819721F473
:103580008FE390E00E940F1089819A81819761F406
:103590008B819C81899741F48D819E81809721F454
:1035A0008FE390E00E94800F89819A81819761F476
:1035B0008B819C81899741F48D819E81889721F42C
:1035C0008BE790E00E940F1089819A81889761F4BF
:1035D0008B819C81899741F48D819E81819721F413
:1035E0008BE790E00E94800F89819A81069761F4B1
:1035F0008B819C81079741F48D819E81829721F474
:103600008BE790E00E940F1089819A81829761F484
:103610008B819C81079741F48D819E81069721F4CF
:103620008DE790E00E94800F89819A81069761F46E
:103630008B819C81079741F48D819E81819721F434
:103640008FE390E00E940F1089819A81819761F445
:103650008B819C81079741F48D819E81069721F48F
:103660008FE390E00E94800F89819A81829761F4B4
:103670008B819C81079741F48D819E81819721F4F4
:103680008BE790E00E940F1089819A81819761F405
:103690008B819C81079741F48D819E81829721F4D3
:1036A0008BE790E00E94800F89819A81089761F4EE
:1036B0008B819C81079741F48D819E81819721F4B4
:1036C0008BE790E00E94800F89819A81819761F455
:1036D0008B819C81079741F48D819E81089721F40D
:1036E0008DE790E00E940F1089819A81089761F41C
:1036F0008B819C81079741F48D819E81829721F473
:103700008FE390E00E94800F89819A81829761F413
:103710008B819C81079741F48D819E81089721F4CC
:103720008FE390E00E940F1089819A81859761F460
:103730008B819C81869741F48D819E81879721F4AE
:103740008FE390E00E94800F89819A81869761F4CF
:103750008B819C81879741F48D819E81889721F48C
:103760008FE390E00E94800F89819A81889761F4AD
:103770008B819C81879741F48D819E81869721F46E
:103780008FE390E00E940F1089819A81879761F4FE
:103790008B819C81869741F48D819E81859721F450
:1037A0008FE390E00E940F1089819A81C09761F4A5
:1037B0008B819C818F9741F48D819E818E9721F41E
:1037C0008FE390E00E940F1089819A818F9761F4B6
:1037D0008B819C818E9741F48D819E818D9721F400
:1037E0008FE390E00E940F1089819A818D9761F498
:1037F0008B819C818E9741F48D819E818F9721F4DE
:103800008FE390E00E94800F89819A818E9761F406
:103810008B819C818F9741F48D819E81C09721F48B
:103820008FE390E00E94800F89819A818C9761F4E8
:103830008B819C818B9741F48D819E818A9721F4A5
:103840008FE390E00E940F1089819A818B9761F439
:103850008B819C818A9741F48D819E81899721F487
:103860008FE390E00E940F1089819A81899761F41B
:103870008B819C818A9741F48D819E818B9721F465
:103880008FE390E00E94800F89819A818A9761F48A
:103890008B819C818B9741F48D819E818C9721F443
:1038A0008FE390E00E94800F29813A818D819E8173
:1038B0002817390721F48AEB90E00E940F10269612
:1038C0000FB6F894DEBF0FBECDBFDF91CF91089544
:1038D000EF92FF920F931F93CF93DF93CDB7DEB795
:1038E000C851D1400FB6F894DEBF0FBECDBF0E94C5
:1038F0004C120E9494000E941A060E94A71280E0B7
:1039000090E0A8ECB2E489839A83AB83BC8380E027
:1039100090E0A8ECB2E48D839E83AF83B88780E00B
:1039200090E0A8ECB2E489879A87AB87BC871E86B3
:103930001D868FE090E09CA78BA7188E1F8A1A8E99
:10394000198E81E090E09C8F8B8F1EA61DA61E8E87
:103950001D8E18A21F8E1AA219A218AA1FA61CA299
:103960001BA21EA21DA2CE0189529F4F22E4FC0180
:10397000322F11923A95E9F7CE0189529F4F28E1F3
:1039800030E0FC0131832083CE0189529F4F2EE02D
:1039900030E0FC0133832283CE0189529F4F23E123
:1039A00030E0FC0135832483CE0189529F4F2BE206
:1039B00030E0FC0137832683CE0189529F4F26E2F7
:1039C00030E0FC0131872087CE0189529F4F22E2EF
:1039D00030E0FC0133872287CE0189529F4F28E0D7
:1039E00030E0FC0135872487CE0189529F4F23E0C8
:1039F00030E0FC0137872687CE0189529F4F24E2B1
:103A000030E0FC01318B208BCE0189529F4F29E1A0
:103A100030E0FC01338B228BCE0189529F4F2DE188
:103A200030E0FC01358B248BCE0189529F4F20E280
:103A300030E0FC01378B268BCE0189529F4F25E267
:103A400030E0FC01318F208FCE0189529F4F2DE154
:103A500030E0FC01338F228FCE0189529F4F2CE240
:103A600030E0FC01358F248FCE0189529F4F21E039
:103A700030E0FC01378F268FCE0189529F4F2DE019
:103A800030E0FC0131A320A3CE0189529F4F25E2F3
:103A900030E0FC0133A322A310920314109202140D
:103AA0000DC08CE290E0FC01808188231CF4188E0C
:103AB0001F8A04C081E090E0988F8F8B8F89988D4A
:103AC000892B79F38F89988D019711F00C945B28DD
:103AD00018A61FA2D9C086EC90E0AE0149525F4FF4
:103AE0002FA138A5220F331F240F351FF901208184
:103AF0003181FC0120839E012F5B3F4F80E090E0ED
:103B0000A8ECB2E4F90180839183A283B3838E0190
:103B10000B5B1F4FCE018F5B9F4F26E636E646E6D6
:103B200055E4FC0160817181828193810E941E2A8B
:103B3000DC01CB01F80180839183A283B383CE01A2
:103B40008B5B9F4F20E030E040E85FE3FC01608149
:103B50007181828193810E94D02888234CF4CE0108
:103B6000875B9F4F21E030E0FC01318320836DC0F3
:103B7000CE018B5B9F4F20E03FEF4FE757E4FC0106
:103B800060817181828193810E941A2A18160CF03B
:103B90004AC0CE018F5B9F4F20E030E040E251E40D
:103BA000FC0160817181828193810E941E2ADC0167
:103BB000CB018E01075B1F4FBC01CD010E943C2948
:103BC000DC01CB01F8019183808324C0CE01855BA9
:103BD0009F4F20E731E0FC0131832083CE01855BDC
:103BE0009F4FFC01808191810197F1F79E01255B38
:103BF0003F4FF90191838083CE01875B9F4F9E01E8
:103C0000275B3F4FF9012081318121503109FC01AF
:103C100031832083CE01875B9F4FFC01808191819E
:103C2000892BA1F62CC08E01075B1F4FCE018B5B49
:103C30009F4FFC0160817181828193810E943C29A8
:103C4000DC01CB01F80191838083CE01835B9F4F20
:103C50009E01275B3F4FF90120813181FC013183B7
:103C60002083CE01835B9F4FFC018081918101976E
:103C7000F1F79E01235B3F4FF901918380838FA170
:103C800098A5019698A78FA38FA198A582970CF469
:103C900022CF0E94E6119E01215B3F4F80E090E021
:103CA000A6E9B3E4F90180839183A283B3838E01F3
:103CB0000D5A1F4FCE01815B9F4F26E636E646E642
:103CC00055E4FC0160817181828193810E941E2AEA
:103CD000DC01CB01F80180839183A283B383CE0101
:103CE0008D5A9F4F20E030E040E85FE3FC016081A7
:103CF0007181828193810E94D02888234CF4CE0167
:103D0000895A9F4F21E030E0FC01318320836DC050
:103D1000CE018D5A9F4F20E03FEF4FE757E4FC0163
:103D200060817181828193810E941A2A18160CF099
:103D30004AC0CE01815B9F4F20E030E040E251E479
:103D4000FC0160817181828193810E941E2ADC01C5
:103D5000CB018E01095A1F4FBC01CD010E943C29A5
:103D6000DC01CB01F8019183808324C0CE01875A06
:103D70009F4F20E731E0FC0131832083CE01875A39
:103D80009F4FFC01808191810197F1F79E01275A95
:103D90003F4FF90191838083CE01895A9F4F9E0145
:103DA000295A3F4FF9012081318121503109FC010D
:103DB00031832083CE01895A9F4FFC0180819181FC
:103DC000892BA1F62CC08E01095A1F4FCE018D5AA6
:103DD0009F4FFC0160817181828193810E943C2907
:103DE000DC01CB01F80191838083CE01855A9F4F7E
:103DF0009E01295A3F4FF90120813181FC01318315
:103E00002083CE01855A9F4FFC01808191810197CB
:103E1000F1F79E01255A3F4FF9019183808381E597
:103E200090E00E940F108AE590E00E946F0F1AA6A2
:103E300019A676C19E0129523F4F89A59AA5880FE0
:103E4000991F820F931FFC018081918198AB8FA7EE
:103E50002FA538A98B8D9C8DB9010E94090B81E09B
:103E600090E09E8B8D8B188A1F861AC08F8598894B
:103E7000880F991F8C5B9B4EFC01208131818B8DBB
:103E80009C8D2817390731F08D899E8901969E8B6C
:103E90008D8B01C009C08F8598890196988B8F877B
:103EA0008F8598894E9714F38D899E8901979A8BF7
:103EB000898B188A1F8637C08F859889880F991F2C
:103EC0008C5B9B4EFC018081918190938514809343
:103ED000841489899A89880F991F8C5B9B4EFC01F9
:103EE000208131818F859889880F991F8C5B9B4E2B
:103EF000FC013183208380918414909185149C016E
:103F000089899A89880F991F8C5B9B4EFC013183AC
:103F100020838F8598890196988B8F8789899A89C4
:103F200001979A8B898B2F85388989899A892817D7
:103F3000390714F28D899E899E8F8D8F809106148A
:103F4000909107142FA538A9B9010E94090B81E0AF
:103F500090E09E8B8D8B188A1F861CC08F85988958
:103F6000880F991F8C5B9B4EFC01208131818091D1
:103F70000614909107142817390731F08D899E890E
:103F800001969E8B8D8B01C009C08F859889019603
:103F9000988B8F878F8598894E9704F38D899E899A
:103FA00001979A8B898B188A1F8637C08F859889CD
:103FB000880F991F8C5B9B4EFC01808191819093AF
:103FC00085148093841489899A89880F991F8C5B42
:103FD0009B4EFC01208131818F859889880F991F24
:103FE0008C5B9B4EFC0131832083809184149091E3
:103FF00085149C0189899A89880F991F8C5B9B4E37
:10400000FC01318320838F8598890196988B8F8757
:1040100089899A8901979A8B898B2F853889898913
:104020009A892817390714F28D899E8998A38F8F52
:1040300089A19AA1892B61F489A59AA5892B41F0C0
:104040002F8D38A18DA19EA1820F931F98A38F8FD2
:1040500089A59AA5892B91F189A19AA1892B71F142
:1040600089A59AA501979E0129523F4F880F991F54
:10407000820F931FFC012081318189A19AA10197B0
:10408000AE014B565F4F880F991F840F951FFC019F
:10409000808191812817390749F42D8D3E8D8BA1A0
:1040A0009CA1820F931F9E8F8D8F08C02F8D38A1EA
:1040B0008DA19EA1820F931F98A38F8F8D8D9E8DB2
:1040C0009CA38BA38F8D98A19EA38DA32D8D3E8D38
:1040D0008F8D98A182179307C4F09E012B563F4FF6
:1040E00089A19AA1880F991F820F931F2FA538A924
:1040F000FC013183208389A19AA101969AA389A307
:104100008FA598A99C8F8B8F06C08FA598A9909397
:1041100007148093061489A59AA501969AA789A7E2
:1041200089A59AA582970CF485CE81E090E09C8FBA
:104130008B8F1C8A1B8ABAC78B8D9C8D9AAB89ABDF
:104140009E012B563F4F8B899C89880F991F820FA8
:10415000931FFC01808191819CAB8BAB81E090E04F
:104160009E8B8D8B2BA93CA989A99AA9B9010E9484
:10417000090B81E090E09E8B8D8B188A1F861AC0F8
:104180008F859889880F991F8C5B9B4EFC0120813D
:10419000318189A99AA92817390731F08D899E891B
:1041A00001969E8B8D8B01C009C08F8598890196E1
:1041B000988B8F878F8598894E9714F38D899E8968
:1041C00001979A8B898B188A1F8637C08F859889AB
:1041D000880F991F8C5B9B4EFC018081918190938D
:1041E00085148093841489899A89880F991F8C5B20
:1041F0009B4EFC01208131818F859889880F991F02
:104200008C5B9B4EFC0131832083809184149091C0
:1042100085149C0189899A89880F991F8C5B9B4E14
:10422000FC01318320838F8598890196988B8F8735
:1042300089899A8901979A8B898B2F8538898989F1
:104240009A892817390714F20E94A71283E00E9466
:104250004611882F90E0A0E0B0E0BC01CD010E94A3
:104260006829DC01CB018DAB9EABAFABB8AF82E070
:104270000E944611882F90E0A0E0B0E0BC01CD0183
:104280000E946829DC01CB0189AF9AAFABAFBCAF0C
:1042900081E00E944611882F90E0A0E0B0E0BC01D0
:1042A000CD010E946829DC01CB019E01235C3F4FB8
:1042B000F90180839183A283B3838BA59CA5092EEA
:1042C000000CAA0BBB0BBC01CD010E946A29DC01CA
:1042D000CB012DA93EA94FA958ADBC01CD010E942B
:1042E0001A2A181694F58BA59CA5092E000CAA0B6A
:1042F000BB0BBC01CD01EED7DC01CB0129AD3AAD42
:104300004BAD5CADBC01CD014BD71816F4F08BA5BD
:104310009CA5092E000CAA0BBB0BBC01CD01DAD762
:104320007B018C01CE01CD96FC012081318142813F
:104330005381C801B7010E941A2A181634F40E944A
:10434000C21166EE86EE0E948A118BA59CA5092EED
:10435000000CAA0BBB0BBC01CD01BCD7DC01CB010F
:104360002DA93EA94FA958ADBC01CD0119D71816EA
:104370009CF18BA59CA5092E000CAA0BBB0BBC01C4
:10438000CD01A8D7DC01CB0129AD3AAD4BAD5CAD79
:10439000BC01CD010E941A2A1816F4F48BA59CA525
:1043A000092E000CAA0BBB0BBC01CD0193D77B01DE
:1043B0008C01CE01CD96FC01208131814281538157
:1043C000C801B7010E941A2A181634F40E94EF118E
:1043D00066EE86EE0E948A118BA59CA5092E000C24
:1043E000AA0BBB0BBC01CD0175D7DC01CB012DA9FC
:1043F0003EA94FA958ADBC01CD010E941A2A18163A
:1044000094F58BA59CA5092E000CAA0BBB0BBC0137
:10441000CD0160D7DC01CB0129AD3AAD4BAD5CAD30
:10442000BC01CD010E941A2A1816ECF48BA59CA59C
:10443000092E000CAA0BBB0BBC01CD014BD77B0195
:104440008C01CE01CD96FC012081318142815381C6
:10445000C801B701A5D6181634F00E94F81166EE0F
:1044600086EE0E948A118BA59CA5092E000CAA0B32
:10447000BB0BBC01CD012ED7DC01CB012DA93EA980
:104480004FA958ADBC01CD018BD6181664F18BA590
:104490009CA5092E000CAA0BBB0BBC01CD011AD7A1
:1044A000DC01CB0129AD3AAD4BAD5CADBC01CD011A
:1044B00077D61816C4F08BA59CA5092E000CAA0B64
:1044C000BB0BBC01CD0106D77B018C01CE01CD9683
:1044D000FC012081318142815381C801B70160D63E
:1044E00018160CF082C08BA59CA5092E000CAA0BF7
:1044F000BB0BBC01CD01EED6DC01CB012DA93EA941
:104500004FA958ADBC01CD014BD6181664F18BA54F
:104510009CA5092E000CAA0BBB0BBC01CD01DAD661
:10452000DC01CB0129AD3AAD4BAD5CADBC01CD0199
:1045300037D61816C4F08BA59CA5092E000CAA0B23
:10454000BB0BBC01CD01C6D67B018C01CE01CD9643
:10455000FC012081318142815381C801B7016AD7B2
:1045600018160CF442C08BA59CA5092E000CAA0BB2
:10457000BB0BBC01CD01AED6DC01CB012DA93EA900
:104580004FA958ADBC01CD0155D718160CF0E1C3A9
:104590008BA59CA5092E000CAA0BBB0BBC01CD0161
:1045A00099D6DC01CB0129AD3AAD4BAD5CADBC0178
:1045B000CD01F6D518160CF4CCC38BA59CA5092EFD
:1045C000000CAA0BBB0BBC01CD0184D67B018C0176
:1045D000CE01CD96FC012081318142815381C801F9
:1045E000B701DED518160CF4B4C30E94E6119E0183
:1045F000235A3F4F80E090E0A8E4B3E4F9018083C0
:104600009183A283B3838E010F591F4FCE01835A2A
:104610009F4F26E636E646E655E4FC01608171814F
:10462000828193810BD7DC01CB01F80180839183D8
:10463000A283B383CE018F599F4F20E030E040E842
:104640005FE3FC016081718182819381A9D5882318
:104650004CF4CE018B599F4F21E030E0FC013183B7
:10466000208369C0CE018F599F4F20E03FEF4FE775
:1046700057E4FC016081718182819381DBD6181639
:104680000CF048C0CE01835A9F4F20E030E040E25A
:1046900051E4FC016081718182819381CFD6DC017C
:1046A000CB018E010B591F4FBC01CD01E5D5DC01BB
:1046B000CB01F8019183808324C0CE0189599F4F9B
:1046C00020E731E0FC0131832083CE0189599F4FDF
:1046D000FC01808191810197F1F79E0129593F4F9B
:1046E000F90191838083CE018B599F4F9E012B59F5
:1046F0003F4FF9012081318121503109FC01318383
:104700002083CE018B599F4FFC0180819181892BA1
:10471000A1F62BC08E010B591F4FCE018F599F4F11
:10472000FC016081718182819381A6D5DC01CB017E
:10473000F80191838083CE0187599F4F9E012B59A9
:104740003F4FF90120813181FC0131832083CE016B
:1047500087599F4FFC01808191810197F1F79E015C
:1047600027593F4FF9019183808385E090E00E94B3
:104770006F0F0E94E6110E94A7128D859E85880FFB
:10478000991F8C5B9B4EFC01808191819C8F8B8F4C
:104790008D859E850196880F991F8C5B9B4EFC0131
:1047A000808191819EA78DA70E941A06898D9A8D7E
:1047B00023E030E0AC0161E081E00E94C6098B8D0E
:1047C0009C8D23E030E0AC0165E081E00E94C609E9
:1047D0008DA59EA523E030E0AC0169E081E00E9458
:1047E000C6096DA97EA98FA998AD46D5DC01CB017C
:1047F00023E030E0AC0161E082E00E94C60969ADCF
:104800007AAD8BAD9CAD38D5DC01CB0123E030E037
:10481000AC0165E082E00E94C609CE01CD96FC01A4
:10482000608171818281938127D5DC01CB0123E0F6
:1048300030E0AC0169E082E00E94C6092B8D3C8D1E
:104840008BA99CA92817390709F0ABC10E94E61172
:10485000C0C09E0125593F4F80E090E0A8ECB2E433
:10486000F90180839183A283B3838E0101591F4F85
:10487000CE0185599F4F26E636E646E655E4FC0113
:104880006081718182819381D9D5DC01CB01F801EE
:1048900080839183A283B383CE0181599F4F20E00F
:1048A00030E040E85FE3FC016081718182819381A7
:1048B00077D488234CF4CE018D589F4F21E030E00F
:1048C000FC013183208369C0CE0181599F4F20E0D4
:1048D0003FEF4FE757E4FC01608171818281938152
:1048E000A9D518160CF048C0CE0185599F4F20E07D
:1048F00030E040E251E4FC0160817181828193816A
:104900009DD5DC01CB018E010D581F4FBC01CD019F
:10491000B3D4DC01CB01F8019183808324C0CE01A4
:104920008B589F4F20E731E0FC0131832083CE017B
:104930008B589F4FFC01808191810197F1F79E0177
:104940002B583F4FF90191838083CE018D589F4FA3
:104950009E012D583F4FF9012081318121503109AD
:10496000FC0131832083CE018D589F4FFC01808153
:104970009181892BA1F62BC08E010D581F4FCE01BE
:1049800081599F4FFC01608171818281938174D430
:10499000DC01CB01F80191838083CE0189589F4FC0
:1049A0009E012D583F4FF90120813181FC01318357
:1049B0002083CE0189589F4FFC018081918101970E
:1049C000F1F79E0129583F4FF901918380830E949E
:1049D000E611809104149091051401969E012952CC
:1049E0003F4F880F991F820F931FFC012081318157
:1049F0008BA99CA92817390709F02BCF0E949E107C
:104A00009E0127583F4F80E090E0AAEFB3E4F90100
:104A100080839183A283B3838E0103581F4FCE01FD
:104A200087589F4F26E636E646E655E4FC0160814E
:104A300071818281938102D5DC01CB01F8018083F1
:104A40009183A283B383CE0183589F4F20E030E04F
:104A500040E85FE3FC016081718182819381A0D392
:104A600088234CF4CE018F579F4F21E030E0FC01AA
:104A70003183208369C0CE0183589F4F20E03FEFF0
:104A80004FE757E4FC016081718182819381D2D428
:104A900018160CF048C0CE0187589F4F20E030E038
:104AA00040E251E4FC016081718182819381C6D42E
:104AB000DC01CB018E010F571F4FBC01CD01DCD3B0
:104AC000DC01CB01F8019183808324C0CE018D5796
:104AD0009F4F20E731E0FC0131832083CE018D57C9
:104AE0009F4FFC01808191810197F1F79E012D5725
:104AF0003F4FF90191838083CE018F579F4F9E01D5
:104B00002F573F4FF9012081318121503109FC019C
:104B100031832083CE018F579F4FFC01808191818B
:104B2000892BA1F62BC08E010F571F4FCE01835842
:104B30009F4FFC0160817181828193819DD3DC0153
:104B4000CB01F80191838083CE018B579F4F9E014B
:104B50002F573F4FF90120813181FC0131832083A0
:104B6000CE018B579F4FFC01808191810197F1F716
:104B70009E012B573F4FF901918380830E94B5100E
:104B800080910414909105140196909305148093DC
:104B9000041486EC90E02FEFFC0120831E861D8616
:104BA00080C24DA55EA52B8D3C8D898D9A8DB90156
:104BB0000E94EA120E94C2119E0129573F4F80E0D5
:104BC00090E0A6E9B3E4F90180839183A283B383E3
:104BD0008E0105571F4FCE0189579F4F26E636E6B7
:104BE00046E655E4FC01608171818281938126D47F
:104BF000DC01CB01F80180839183A283B383CE01D2
:104C000085579F4F20E030E040E85FE3FC01608182
:104C1000718182819381C4D288234CF4CE01815763
:104C20009F4F21E030E0FC013183208369C0CE0139
:104C300085579F4F20E03FEF4FE757E4FC0160812D
:104C4000718182819381F6D318160CF048C0CE0191
:104C500089579F4F20E030E040E251E4FC01608141
:104C6000718182819381EAD3DC01CB018E010157EE
:104C70001F4FBC01CD0100D3DC01CB01F8019183B2
:104C8000808324C0CE018F569F4F20E731E0FC0186
:104C900031832083CE018F569F4FFC01808191810B
:104CA0000197F1F79E012F563F4FF90191838083C1
:104CB000CE0181579F4F9E0121573F4FF90120811F
:104CC000318121503109FC0131832083CE0181578C
:104CD0009F4FFC0180819181892BA1F62BC08E0111
:104CE00001571F4FCE0185579F4FFC016081718195
:104CF00082819381C1D2DC01CB01F8019183808351
:104D0000CE018D569F4F9E0121573F4FF9012081C3
:104D10003181FC0131832083CE018D569F4FFC01F0
:104D2000808191810197F1F79E012D563F4FF90146
:104D3000918380830E94B51066EE86EE0E948A11F0
:104D40008B8D9C8D9A8F898F8D859E8501969E87F0
:104D50008D878BA59CA5092E000CAA0BBB0BBC0153
:104D6000CD01B8D2DC01CB012DA93EA94FA958AD88
:104D7000BC01CD015FD318160CF077C18BA59CA5A3
:104D8000092E000CAA0BBB0BBC01CD01A3D2DC0188
:104D9000CB0129AD3AAD4BAD5CADBC01CD014AD3E1
:104DA00018160CF062C18BA59CA5092E000CAA0B4D
:104DB000BB0BBC01CD018ED27B018C01CE01CD9607
:104DC000FC012081318142815381C801B70132D376
:104DD00018160CF04AC18BA59CA5092E000CAA0B35
:104DE000BB0BBC01CD0176D2DC01CB0129813A811C
:104DF0004B815C81BC01CD01D3D1181674F18BA518
:104E00009CA5092E000CAA0BBB0BBC01CD0162D2E4
:104E1000DC01CB0129853A854B855C85BC01CD0140
:104E200009D31816D4F48BA59CA5092E000CAA0B47
:104E3000BB0BBC01CD014ED2DC01CB012D813E81EB
:104E40004F815885BC01CD01F5D2181634F40E946B
:104E5000EF1166EE86EE0E948A118BA59CA5092EA5
:104E6000000CAA0BBB0BBC01CD0134D2DC01CB0181
:104E700029813A814B815C81BC01CD01DBD21816BE
:104E800074F58BA59CA5092E000CAA0BBB0BBC01CD
:104E9000CD0120D2DC01CB0129853A854B855C858B
:104EA000BC01CD01C7D21816D4F48BA59CA5092E40
:104EB000000CAA0BBB0BBC01CD010CD2DC01CB0159
:104EC0002D813E814F815885BC01CD0169D11816D5
:104ED00034F00E94F81166EE86EE0E948A118BA5CE
:104EE0009CA5092E000CAA0BBB0BBC01CD01F2D175
:104EF000DC01CB0129813A814B815C81BC01CD0170
:104F000099D2181674F58BA59CA5092E000CAA0B36
:104F1000BB0BBC01CD01DED1DC01CB0129853A857B
:104F20004B855C85BC01CD013BD11816D4F08BA517
:104F30009CA5092E000CAA0BBB0BBC01CD01CAD14C
:104F4000DC01CB012D813E814F815885BC01CD0113
:104F500071D2181634F40E94EF1166EE86EE0E94AC
:104F60008A118BA59CA5092E000CAA0BBB0BBC01BA
:104F7000CD01B0D1DC01CB0129813A814B815C812B
:104F8000BC01CD0157D2181674F58BA59CA5092E2E
:104F9000000CAA0BBB0BBC01CD019CD1DC01CB01E9
:104FA00029853A854B855C85BC01CD01F9D0181661
:104FB000D4F08BA59CA5092E000CAA0BBB0BBC0141
:104FC000CD0188D1DC01CB012D813E814F815885F7
:104FD000BC01CD01E5D0181634F00E94F81166EE40
:104FE00086EE0E948A118BA59CA5092E000CAA0BA7
:104FF000BB0BBC01CD016ED1DC01CB0129813A8113
:105000004B815C81BC01CD01CBD0181674F18BA50E
:105010009CA5092E000CAA0BBB0BBC01CD015AD1DB
:10502000DC01CB0129853A854B855C85BC01CD012E
:10503000B7D01816D4F08BA59CA5092E000CAA0B8E
:10504000BB0BBC01CD0146D1DC01CB012D813E81E2
:105050004F815885BC01CD01EDD1181634F40E9462
:10506000EF1166EE86EE0E948A118DA99EA9AFA966
:10507000B8AD89839A83AB83BC83CE01CD96FC0106
:1050800080819181A281B3818D839E83AF83B88714
:1050900089AD9AADABADBCAD89879A87AB87BC872C
:1050A000D3C88B899C8901969C8B8B8B8B899C891F
:1050B00081970CF441C880E090E0C85EDE4F0FB6E7
:1050C000F894DEBF0FBECDBFDF91CF911F910F913E
:1050D000FF90EF9008955058BB27AA270ED070C1BB
:1050E00061D130F066D120F031F49F3F11F41EF40D
:1050F00056C10EF4E095E7FB4CC1E92F72D180F365
:10510000BA17620773078407950718F071F49EF5C4
:105110008AC10EF4E0950B2EBA2FA02D0B01B90118
:1051200090010C01CA01A0011124FF27591B99F01D
:10513000593F50F4503E68F11A16F040A22F232F29
:10514000342F4427585FF3CF469537952795A79579
:10515000F0405395C9F77EF41F16BA0B620B730B20
:10516000840BBAF09150A1F0FF0FBB1F661F771F91
:10517000881FC2F70EC0BA0F621F731F841F48F446
:10518000879577956795B795F7959E3F08F0B3CFCC
:105190009395880F08F09927EE0F979587950895B6
:1051A000D4D008F481E008950CD00AC102D140F0B7
:1051B000F9D030F021F45F3F19F0EBC0511134C148
:1051C000EEC00FD198F39923C9F35523B1F3951B82
:1051D000550BBB27AA2762177307840738F09F5F18
:1051E0005F4F220F331F441FAA1FA9F333D00E2E87
:1051F0003AF0E0E830D091505040E695001CCAF7F4
:1052000029D0FE2F27D0660F771F881FBB1F2617B8
:1052100037074807AB07B0E809F0BB0B802DBF018B
:10522000FF2793585F4F2AF09E3F510568F0B1C0A9
:10523000FBC05F3FECF3983EDCF38695779567956E
:10524000B795F7959F5FC9F7880F911D969587953C
:1052500097F90895E1E0660F771F881FBB1F62175B
:1052600073078407BA0720F0621B730B840BBA0B19
:10527000EE1F88F7E0950895BCD088F09F5790F016
:10528000B92F9927B751A0F0D1F0660F771F881F6B
:10529000991F1AF0BA95C9F712C0B13081F0C3D086
:1052A000B1E00895C0C0672F782F8827B85F39F024
:1052B000B93FCCF3869577956795B395D9F73EF4CA
:1052C00090958095709561957F4F8F4F9F4F089572
:1052D000E89409C097FB3EF4909580957095619590
:1052E0007F4F8F4F9F4F9923A9F0F92F96E9BB2746
:1052F0009395F695879577956795B795F111F8CFC2
:10530000FAF4BB0F11F460FF1BC06F5F7F4F8F4F2C
:105310009F4F16C0882311F096E911C0772321F022
:105320009EE8872F762F05C0662371F096E8862FBA
:1053300070E060E02AF09A95660F771F881FDAF711
:10534000880F9695879597F90895990F0008550F3E
:10535000AA0BE0E8FEEF16161706E807F907C0F0FB
:1053600012161306E407F50798F0621B730B840B03
:10537000950B39F40A2661F0232B242B252B21F4DD
:1053800008950A2609F4A140A6958FEF811D811D7D
:10539000089597F99F6780E870E060E008959FEFB7
:1053A00080EC089500240A941616170618060906BC
:1053B000089500240A94121613061406050608958B
:1053C000092E0394000C11F4882352F0BB0F40F413
:1053D000BF2B11F460FF04C06F5F7F4F8F4F9F4F53
:1053E000089557FD9058440F551F59F05F3F71F0D5
:1053F0004795880F97FB991F61F09F3F79F087953C
:105400000895121613061406551FF2CF4695F1DFC4
:1054100008C0161617061806991FF1CF8695710554
:10542000610508940895E894BB2766277727CB0188
:1054300097F908958ADF08F48FEF08950BD0C0CF55
:10544000B1DF28F0B6DF18F0952309F0A2CFA7CF7F
:105450001124EACFC6DFA0F3959FD1F3950F50E05A
:10546000551F629FF001729FBB27F00DB11D639F16
:10547000AA27F00DB11DAA1F649F6627B00DA11DBC
:10548000661F829F2227B00DA11D621F739FB00D62
:10549000A11D621F839FA00D611D221F749F3327D2
:1054A000A00D611D231F849F600D211D822F762F6B
:1054B0006A2F11249F5750408AF0E1F088234AF068
:1054C000EE0FFF1FBB1F661F771F881F91505040B4
:1054D000A9F79E3F510570F05CCFA6CF5F3FECF37C
:1054E000983EDCF3869577956795B795F795E795A0
:1054F0009F5FC1F7FE2B880F911D9695879597F9B1
:105500000895A29FB001B39FC001A39F700D811D9C
:105510001124911DB29F700D811D1124911D0895BC
:04552000F894FFCF2D
:105524000F2701000F270F270F270F270F270F27FC
:105534000F270F270F270F270F270F270F270F27B7
:105544000F270F270F270F270F270F270F270100DC
:105554000F270F270F270F270F270F270F270F2797
:105564000F270F270F270F270F270F270F270F2787
:105574000F270F270F270F270F270F270F270F2777
:1055840001000F2701000F270F270F270F270F27D1
:105594000F270F270F270F270F270F270F270F2757
:1055A4000F270F270F270F270F270F270F270F2747
:1055B4000F270F270F270F270F270F270F270F2737
:1055C4000F270F270F270F270F270F270F270F2727
:1055D4000F270F270F270F270F270F270F270F2717
:1055E4000F2701000F2701000F270F270F270F2771
:1055F4000F270F270F270F270F270F270F270F27F7
:105604000F270F270F270F270F270F270F270F27E6
:105614000F270F270F270F270F270F270F270F27D6
:105624000F270F27010001000F270F270F270F2730
:105634000F270F270F270F270F270F270F270F27B6
:105644000F270F2701000F2701000F270F270F2710
:105654000F270F270F270F270F270F270F270F2796
:105664000F270F270F270F270F270F270F270F2786
:105674000F270F270F270F270F270F270F270F2776
:105684000F270F270F270F270F270F270F270F2766
:105694000F270F270F270F270F270F270F270F2756
:1056A4000F270F270F2701000F2701000F270F27B0
:1056B4000F270F270F270F270F270F270F270F2736
:1056C4000F270F270F270F270F270F270F270F2726
:1056D4000F270F270F270F270F270F270F270F2716
:1056E4000F270F270F270F270F270F270F270F2706
:1056F4000F270F270F270F270F270F270F270F27F6
:105704000F270F270F270F2701000F2701000F274F
:105714000F270F270F270F270F270F270F270F27D5
:105724000F270F270F270F270F270F270F270F27C5
:105734000F270F270F270F270F270F270F270F27B5
:105744000F270F270F270F270F270F270F270F27A5
:105754000F270F270F270F270F270F270F270F2795
:105764000F270F270F270F270F2701000F270100EF
:105774000F270F270F270F270F270F270F270F2775
:105784000F270F270F270F270F270F270F270F2765
:105794000F270F270F270F270F270F270F270F2755
:1057A400010001000F270F270F270F270F270F27AF
:1057B4000F270F270F270F270F270F270F270F2735
:1057C4000F270F270F270F270F270F2701000F275A
:1057D40001000F270F270F270F270F270F270F274A
:1057E4000F270F270F270F270F270F270F270F2705
:1057F4000F270F270F270F270F270F270F270F27F5
:105804000F270F270F270F270F270F270F270F27E4
:105814000F270F270F270F270F270F270F270F27D4
:105824000F270F270F270F270F270F270F270100F9
:105834000F2701000F270F270F270F270F270F27E9
:105844000F270F270F270F270F270F270F270F27A4
:105854000F270F270F270F270F270F270F270F2794
:105864000F270F270F270F270F270F270F270F2784
:105874000F270F270F270F270F270F270F270F2774
:105884000F270F270F270F270F270F270F270F2764
:1058940001000F2701000F270F270F270F270F27BE
:1058A4000F270F270F270F270F270F270F270F2744
:1058B4000F270F270F270F270F270F270F270F2734
:1058C4000F270F270F270F270F270F270F270F2724
:1058D4000F270F270F270F270F270F270F270F2714
:1058E4000F270F270F270F270F270F270F270F2704
:1058F4000F2701000F2701000F270F270F270F275E
:105904000F270F270F270F270F270F270F270F27E3
:105914000F270F270F270F270F270F27010001003D
:105924000F270F270F270F270F270F270F270F27C3
:105934000F270F270F270F270F270F270F270F27B3
:105944000F270F270F270F270F270F270F270F27A3
:105954000F270F2701000F2701000F270F270F27FD
:105964000F270F270F270F270F270F270F270F2783
:105974000F270F270F270F270F270F270F270F2773
:105984000F270F270F270F270F270F270F270F2763
:105994000F270F270F270F270F270F270F270F2753
:1059A4000F270F270F270F270F270F270F270F2743
:1059B4000F270F270F2701000F2701000F270F279D
:1059C4000F270F270F270F270F270F270F270F2723
:1059D4000F270F270F270F270F270F270F270F2713
:1059E4000F270F270F270F270F270F270F270F2703
:1059F4000F270F270F270F270F270F270F270F27F3
:105A04000F270F270F270F270F270F270F270F27E2
:105A14000F270F270F270F2701000F2701000F273C
:105A24000F270F270F270F270F270F270F270F27C2
:105A34000F270F270F270F270F270F270F270F27B2
:105A44000F270F270F270F270F270F270F270F27A2
:105A54000F270F270F270F270F270F270F270F2792
:105A64000F270F270F270F270F270F270F270F2782
:105A74000F270F270F270F270F2701000F270100DC
:105A84000F270F270F270F270F270F270F270F2762
:105A94000F270F270F270F27010001000F270F27BC
:105AA4000F270F270F270F270F270F270F270F2742
:105AB4000F270F270F270F270F270F270F270F2732
:105AC4000F270F270F270F270F270F270F270F2722
:105AD4000F270F270F270F270F270F2701000F2747
