:1000000071C0000090C000008EC000008CC00000D5
:100010008AC000000C94510E0C94240E84C0000081
:1000200082C0000080C000007EC000007CC00000D4
:100030007AC0000078C0000076C0000074C00000E4
:1000400072C0000070C000006EC000006CC00000F4
:100050006AC0000068C0000066C0000064C0000004
:1000600062C000000C94B0125EC000005CC00000D2
:100070005AC0000058C0000056C0000054C0000024
:1000800052C0000050C000004EC000004CC0000034
:100090004AC0000048C0000046C0000044C0000044
:1000A00042C0000040C000003EC000003CC0000054
:1000B0003AC0000038C0000036C0000034C0000064
:1000C00032C0000030C000002EC000002CC0000074
:1000D0002AC0000028C0000026C0000024C0000084
:1000E00022C0000011241FBECFEFD1E2DEBFCDBF82
:1000F00000E00CBF14E1A0E0B2E0ECE6F2E500E0C5
:100100000BBF02C007900D92A830B107D9F724E1C8
:10011000A8E0B4E101C01D92A33DB207E1F70E943F
:10012000951C0C9434296CCF0F931F93CF93DF93BE
:10013000CDB7DEB7C057D1090FB6F894DEBF0FBEFA
:10014000CDBF80E090E0A0E8BFE389839A83AB83D2
:10015000BC8326E636E646E655E469817A818B81E2
:100160009C810E94C228DC01CB018D839E83AF83DA
:10017000B88720E030E040E85FE36D817E818F81C9
:1001800098850E94742788232CF481E090E09A8758
:1001900089873FC020E03FEF4FE757E46D817E81C4
:1001A0008F8198850E94BE2818164CF520E030E01B
:1001B00040E251E469817A818B819C810E94C2284E
:1001C000DC01CB01BC01CD010E94E027DC01CB01A9
:1001D0009A8789870FC080E791E09C878B878B8502
:1001E0009C850197F1F79C878B8789859A85019774
:1001F0009A87898789859A85892B69F714C06D81CB
:100200007E818F8198850E94E027DC01CB019A874F
:10021000898789859A859E878D878D859E8501979B
:10022000F1F79E878D8788E290E028E230E0F901BF
:1002300020812E7FFC01208388E290E028E230E0DC
:10024000F90120812D7FFC01208388E290E020E3EA
:10025000FC01208388E290E028E230E0F90120816F
:100260002460FC01208380E090E0A0EAB0E48F8766
:10027000988BA98BBA8B26E636E646E655E46F8561
:10028000788989899A890E94C228DC01CB018B8BED
:100290009C8BAD8BBE8B20E030E040E85FE36B8948
:1002A0007C898D899E890E94742788232CF481E0A3
:1002B00090E0988F8F8B3FC020E03FEF4FE757E4EF
:1002C0006B897C898D899E890E94BE2818164CF501
:1002D00020E030E040E251E46F85788989899A898D
:1002E0000E94C228DC01CB01BC01CD010E94E027A5
:1002F000DC01CB01988F8F8B0FC080E791E09A8F44
:10030000898F898D9A8D0197F1F79A8F898F8F89BF
:10031000988D0197988F8F8B8F89988D892B69F78E
:1003200014C06B897C898D899E890E94E027DC013D
:10033000CB01988F8F8B8F89988D9C8F8B8F8B8D16
:100340009C8D0197F1F79C8F8B8F88E290E028E2DB
:1003500030E0F90120812B7FFC01208380E090E0D8
:10036000A0E8BFE38D8F9E8FAF8FB8A326E636E659
:1003700046E655E46D8D7E8D8F8D98A10E94C22832
:10038000DC01CB0189A39AA3ABA3BCA320E030E09E
:1003900040E85FE369A17AA18BA19CA10E94742728
:1003A00088232CF481E090E09EA38DA33FC020E041
:1003B0003FEF4FE757E469A17AA18BA19CA10E946E
:1003C000BE2818164CF520E030E040E251E46D8D77
:1003D0007E8D8F8D98A10E94C228DC01CB01BC01CB
:1003E000CD010E94E027DC01CB019EA38DA30FC0AD
:1003F00080E791E098A78FA38FA198A50197F1F7C7
:1004000098A78FA38DA19EA101979EA38DA38DA1D7
:100410009EA1892B69F714C069A17AA18BA19CA127
:100420000E94E027DC01CB019EA38DA38DA19EA19C
:100430009AA789A789A59AA50197F1F79AA789A7ED
:1004400088E290E028E230E0F90120812E7FFC0173
:10045000208388E290E028E230E0F90120812D7FBE
:10046000FC01208388E290E020E3FC01208388E205
:1004700090E028E230E0F90120812460FC01208333
:1004800080E090E0A0EAB0E48BA79CA7ADA7BEA750
:1004900026E636E646E655E46BA57CA58DA59EA529
:1004A0000E94C228DC01CB018FA798ABA9ABBAABE5
:1004B00020E030E040E85FE36FA578A989A99AA918
:1004C0000E94742788232CF481E090E09CAB8BABD6
:1004D0003FC020E03FEF4FE757E46FA578A989A917
:1004E0009AA90E94BE2818164CF520E030E040E2A0
:1004F00051E46BA57CA58DA59EA50E94C228DC01B8
:10050000CB01BC01CD010E94E027DC01CB019CABFB
:100510008BAB0FC080E791E09EAB8DAB8DA99EA900
:100520000197F1F79EAB8DAB8BA99CA901979CAB72
:100530008BAB8BA99CA9892B69F714C06FA578A9EF
:1005400089A99AA90E94E027DC01CB019CAB8BAB67
:100550008BA99CA998AF8FAB8FA998AD0197F1F7A4
:1005600098AF8FAB88E290E028E230E0F90120817B
:100570002B7FFC01208380E090E0A0E8BFE389AFFF
:100580009AAFABAFBCAF26E636E646E655E469ADBA
:100590007AAD8BAD9CAD0E94C228DC01CB019E01DF
:1005A000235C3F4FF90180839183A283B38320E0D2
:1005B00030E040E85FE3CE01CD96FC0160817181BF
:1005C000828193810E94742788234CF4CE018F5B33
:1005D0009F4F21E030E0FC013183208367C020E0A1
:1005E0003FEF4FE757E4CE01CD96FC01608171816A
:1005F000828193810E94BE2818160CF046C020E02C
:1006000030E040E251E469AD7AAD8BAD9CAD0E9423
:10061000C228DC01CB018E010F5B1F4FBC01CD0155
:100620000E94E027DC01CB01F8019183808324C084
:10063000CE018D5B9F4F20E731E0FC0131832083A9
:10064000CE018D5B9F4FFC01808191810197F1F775
:100650009E012D5B3F4FF90191838083CE018F5B1B
:100660009F4F9E012F5B3F4FF90120813181215027
:100670003109FC0131832083CE018F5B9F4FFC0148
:1006800080819181892BA1F62BC08E010F5B1F4FBA
:10069000CE01CD96FC0160817181828193810E949F
:1006A000E027DC01CB01F80191838083CE018B5BD5
:1006B0009F4F9E012F5B3F4FF90120813181FC014B
:1006C00031832083CE018B5B9F4FFC018081918120
:1006D0000197F1F79E012B5B3F4FF90191838083D6
:1006E00088E290E028E230E0F90120812E7FFC01D1
:1006F000208388E290E028E230E0F90120812D7F1C
:10070000FC01208388E290E020E3FC01208388E262
:1007100090E028E230E0F90120812460FC01208390
:100720009E01295B3F4F80E090E0A0EAB0E4F90130
:1007300080839183A283B3838E01055B1F4FCE011B
:10074000895B9F4F26E636E646E655E4FC0160816C
:100750007181828193810E94C228DC01CB01F80162
:1007600080839183A283B383CE01855B9F4F20E07A
:1007700030E040E85FE3FC01608171818281938118
:100780000E94742788234CF4CE01815B9F4F21E0A7
:1007900030E0FC01318320836DC0CE01855B9F4F2B
:1007A00020E03FEF4FE757E4FC01608171818281D7
:1007B00093810E94BE2818160CF04AC0CE01895BB6
:1007C0009F4F20E030E040E251E4FC016081718104
:1007D000828193810E94C228DC01CB018E01015BE2
:1007E0001F4FBC01CD010E94E027DC01CB01F801C5
:1007F0009183808324C0CE018F5A9F4F20E731E040
:10080000FC0131832083CE018F5A9F4FFC018081F0
:1008100091810197F1F79E012F5A3F4FF901918382
:100820008083CE01815B9F4F9E01215B3F4FF90189
:100830002081318121503109FC0131832083CE0197
:10084000815B9F4FFC0180819181892BA1F62CC097
:100850008E01015B1F4FCE01855B9F4FFC016081C4
:100860007181828193810E94E027DC01CB01F80134
:1008700091838083CE018D5A9F4F9E01215B3F4F14
:10088000F90120813181FC0131832083CE018D5A11
:100890009F4FFC01808191810197F1F79E012D5AB4
:1008A0003F4FF9019183808388E290E028E230E0B5
:1008B000F90120812B7FFC0120839E012B5A3F4FA1
:1008C00080E090E0A0E8BFE3F90180839183A283F8
:1008D000B3838E01075A1F4FCE018B5A9F4F26E6D6
:1008E00036E646E655E4FC016081718182819381A0
:1008F0000E94C228DC01CB01F80180839183A2838E
:10090000B383CE01875A9F4F20E030E040E85FE399
:10091000FC0160817181828193810E947427882308
:100920004CF4CE01835A9F4F21E030E0FC0131832B
:1009300020836DC0CE01875A9F4F20E03FEF4FE7E5
:1009400057E4FC0160817181828193810E94BE28FD
:1009500018160CF04AC0CE018B5A9F4F20E030E0B1
:1009600040E251E4FC0160817181828193810E94A7
:10097000C228DC01CB018E01035A1F4FBC01CD01FF
:100980000E94E027DC01CB01F8019183808324C021
:10099000CE01815A9F4F20E731E0FC013183208353
:1009A000CE01815A9F4FFC01808191810197F1F71F
:1009B0009E01215A3F4FF90191838083CE01835AD2
:1009C0009F4F9E01235A3F4FF901208131812150D1
:1009D0003109FC0131832083CE01835A9F4FFC01F2
:1009E00080819181892BA1F62CC08E01035A1F4F63
:1009F000CE01875A9F4FFC01608171818281938172
:100A00000E94E027DC01CB01F80191838083CE01B5
:100A10008F599F4F9E01235A3F4FF9012081318109
:100A2000FC0131832083CE018F599F4FFC018081CF
:100A300091810197F1F79E012F593F4FF901918361
:100A4000808388E290E028E230E0F90120812E7F67
:100A5000FC01208388E290E028E230E0F901208167
:100A60002D7FFC01208388E290E020E2FC012083BE
:100A700088E290E028E230E0F90120812460FC0166
:100A800020839E012D593F4F80E090E0A0EAB0E422
:100A9000F90180839183A283B3838E0109591F4F8B
:100AA000CE018D599F4F26E636E646E655E4FC0119
:100AB00060817181828193810E94C228DC01CB0117
:100AC000F80180839183A283B383CE0189599F4F1C
:100AD00020E030E040E85FE3FC01608171818281C9
:100AE00093810E94742788234CF4CE0185599F4F2F
:100AF00021E030E0FC01318320836DC0CE018959B3
:100B00009F4F20E03FEF4FE757E4FC016081718188
:100B1000828193810E94BE2818160CF04AC0CE0133
:100B20008D599F4F20E030E040E251E4FC016081AC
:100B30007181828193810E94C228DC01CB018E01E8
:100B400005591F4FBC01CD010E94E027DC01CB01FC
:100B5000F8019183808324C0CE0183599F4F20E701
:100B600031E0FC0131832083CE0183599F4FFC018A
:100B7000808191810197F1F79E0123593F4FF9013F
:100B800091838083CE0185599F4F9E0125593F4F08
:100B9000F9012081318121503109FC013183208309
:100BA000CE0185599F4FFC0180819181892BA1F64F
:100BB0002CC08E0105591F4FCE0189599F4FFC0152
:100BC00060817181828193810E94E027DC01CB01E9
:100BD000F80191838083CE0181599F4F9E01255951
:100BE0003F4FF90120813181FC0131832083CE0107
:100BF00081599F4FFC01808191810197F1F79E01FE
:100C000021593F4FF9019183808388E290E028E2E7
:100C100030E0F90120812B7FFC012083C059DF4F98
:100C20000FB6F894DEBF0FBECDBFDF91CF911F91FD
:100C30000F910895CF93DF93CDB7DEB72E970FB600
:100C4000F894DEBF0FBECDBF6FDA80E090E0A0E881
:100C5000BFE389839A83AB83BC8326E636E646E608
:100C600055E469817A818B819C810E94C228DC01D4
:100C7000CB018D839E83AF83B88720E030E040E8CE
:100C80005FE36D817E818F8198850E947427882320
:100C90002CF481E090E09A8789873FC020E03FEF05
:100CA0004FE757E46D817E818F8198850E94BE2831
:100CB00018164CF520E030E040E251E469817A8179
:100CC0008B819C810E94C228DC01CB01BC01CD013B
:100CD0000E94E027DC01CB019A8789870FC080E75B
:100CE00091E09C878B878B859C850197F1F79C878A
:100CF0008B8789859A8501979A87898789859A85BF
:100D0000892B69F714C06D817E818F8198850E943F
:100D1000E027DC01CB019A87898789859A859E87A0
:100D20008D878D859E850197F1F79E878D8788E257
:100D300011D081E00FD086E00DD08EE00BD080E89E
:100D400009D02E960FB6F894DEBF0FBECDBFDF914F
:100D5000CF910895CF93DF93CDB7DEB76E970FB6DF
:100D6000F894DEBF0FBECDBF8E8F8E8D89838981B3
:100D7000807F898388E290E028E230E0F9012081D9
:100D80002F70FC01208388E290E028E230E0F90136
:100D900030812981232BFC01208388E290E028E226
:100DA00030E0F90120812E7FFC01208388E290E071
:100DB00028E230E0F90120812D7FFC01208388E2C8
:100DC00090E028E230E0F90120812460FC012083DA
:100DD00080E090E0A0EAB0E48A839B83AC83BD838B
:100DE00026E636E646E655E46A817B818C819D8164
:100DF0000E94C228DC01CB018E839F83A887B9871C
:100E000020E030E040E85FE36E817F81888599854E
:100E10000E94742788232CF481E090E09B878A87C6
:100E20003FC020E03FEF4FE757E46E817F81888528
:100E300099850E94BE2818164CF520E030E040E26B
:100E400051E46A817B818C819D810E94C228DC01F2
:100E5000CB01BC01CD010E94E027DC01CB019B87C7
:100E60008A870FC080E791E09D878C878C859D8560
:100E70000197F1F79D878C878A859B8501979B87D2
:100E80008A878A859B85892B69F714C06E817F814B
:100E9000888599850E94E027DC01CB019B878A87A2
:100EA0008A859B859F878E878E859F850197F1F721
:100EB0009F878E8788E290E028E230E0F901208168
:100EC0002B7FFC0120838E8D8F708E8F8E8D82956F
:100ED000807F8E8F88E290E028E230E0F901208167
:100EE0002F70FC01208388E290E028E230E0F901D5
:100EF00030812E8D232BFC01208388E290E028E2B4
:100F000030E0F90120812E7FFC01208388E290E00F
:100F100028E230E0F90120812D7FFC01208388E266
:100F200090E028E230E0F90120812460FC01208378
:100F300080E090E0A0EAB0E4888B998BAA8BBB8B11
:100F400026E636E646E655E4688979898A899B89EA
:100F50000E94C228DC01CB018C8B9D8BAE8BBF8B9A
:100F600020E030E040E85FE36C897D898E899F89CD
:100F70000E94742788232CF481E090E0998F888F59
:100F80003FC020E03FEF4FE757E46C897D898E89B1
:100F90009F890E94BE2818164CF520E030E040E200
:100FA00051E4688979898A899B890E94C228DC0179
:100FB000CB01BC01CD010E94E027DC01CB01998F60
:100FC000888F0FC080E791E09B8F8A8F8A8D9B8DE1
:100FD0000197F1F79B8F8A8F888D998D0197998F53
:100FE000888F888D998D892B69F714C06C897D89CC
:100FF0008E899F890E94E027DC01CB01998F888F21
:10100000888D998D9D8F8C8F8C8D9D8D0197F1F79B
:101010009D8F8C8F88E290E028E230E0F9012081FA
:101020002B7FFC0120836E960FB6F894DEBF0FBEB7
:10103000CDBFDF91CF910895CF93DF93CDB7DEB7CA
:101040006E970FB6F894DEBF0FBECDBF8E8F8E8D1C
:1010500089838981807F898388E290E028E230E07B
:10106000F90120812F70FC01208388E290E028E2C2
:1010700030E0F90130812981232BFC01208388E2B3
:1010800090E028E230E0F90120812160FC0120831A
:1010900088E290E028E230E0F90120812D7FFC0118
:1010A000208388E290E028E230E0F901208124608A
:1010B000FC01208380E090E0A0EAB0E48A839B8377
:1010C000AC83BD8326E636E646E655E46A817B813D
:1010D0008C819D810E94C228DC01CB018E839F837D
:1010E000A887B98720E030E040E85FE36E817F8128
:1010F000888599850E94742788232CF481E090E0EC
:101100009B878A873FC020E03FEF4FE757E46E811F
:101110007F81888599850E94BE2818164CF520E0AD
:1011200030E040E251E46A817B818C819D810E94A4
:10113000C228DC01CB01BC01CD010E94E027DC010B
:10114000CB019B878A870FC080E791E09D878C87C2
:101150008C859D850197F1F79D878C878A859B8576
:1011600001979B878A878A859B85892B69F714C09D
:101170006E817F81888599850E94E027DC01CB0103
:101180009B878A878A859B859F878E878E859F858B
:101190000197F1F79F878E8788E290E028E230E0A0
:1011A000F90120812B7FFC0120838E8D8F708E8F23
:1011B0008E8D8295807F8E8F88E290E028E230E0ED
:1011C000F90120812F70FC01208388E290E028E261
:1011D00030E0F90130812E8D232BFC01208388E241
:1011E00090E028E230E0F90120812160FC012083B9
:1011F00088E290E028E230E0F90120812D7FFC01B7
:10120000208388E290E028E230E0F9012081246028
:10121000FC01208380E090E0A0EAB0E4888B998B09
:10122000AA8BBB8B26E636E646E655E468897989C3
:101230008A899B890E94C228DC01CB018C8B9D8B03
:10124000AE8BBF8B20E030E040E85FE36C897D89A6
:101250008E899F890E94742788232CF481E090E076
:10126000998F888F3FC020E03FEF4FE757E46C89AC
:101270007D898E899F890E94BE2818164CF520E032
:1012800030E040E251E4688979898A899B890E942B
:10129000C228DC01CB01BC01CD010E94E027DC01AA
:1012A000CB01998F888F0FC080E791E09B8F8A8F49
:1012B0008A8D9B8D0197F1F79B8F8A8F888D998DF1
:1012C0000197998F888F888D998D892B69F714C024
:1012D0006C897D898E899F890E94E027DC01CB0182
:1012E000998F888F888D998D9D8F8C8F8C8D9D8DFA
:1012F0000197F1F79D8F8C8F88E290E028E230E033
:10130000F90120812B7FFC0120836E960FB6F894A3
:10131000DEBF0FBECDBFDF91CF910895CF93DF9396
:10132000CDB7DEB780E816DDDF91CF910895CF937A
:10133000DF931F921F92CDB7DEB789836A838981BD
:10134000882F90E08230910581F0833091051CF464
:10135000019739F016C08330910559F0049769F070
:1013600010C08A818158F6DC0CC08A818154F2DC7D
:1013700008C08A818D56EEDC04C08A818D52EADC79
:1013800000000F900F90DF91CF910895CF93DF93DE
:10139000CDB7DEB727970FB6F894DEBF0FBECDBF2F
:1013A0008A836B835D834C833F832E8319828A817A
:1013B000882319F08B81882311F4B0DF03C06B817F
:1013C0008A81B5DF8E819F81059719F089818130EF
:1013D000F9F48C819D81929582958F7089279F70F9
:1013E00089279C01A7E4B3E00E942529969587955B
:1013F0009695879596958795C0969093851480933A
:101400008414809184149091851416DE81E0898380
:101410008E819F81049721F08981813009F03FC03E
:101420008C819D81969587959695879596958795BC
:101430009C01A5ECB0E20E942529929582958F70BF
:1014400089279F70892790938714809386144091F1
:101450008614509187149A01ADECBCEC0E942529AA
:10146000969587959695879596958795880F991F58
:101470009C01220F331F220F331F820F931F9A01EB
:10148000281B390BC901C0969093D2148093D114B4
:101490008091D1149091D214CFDD81E089838E8127
:1014A0009F81039719F089818130C9F58C819D81D5
:1014B00096958795969587959C01ABE7B4E10E9438
:1014C000252996958795909387148093861440914B
:1014D0008614509187149A01ADECBCEC0E9425292A
:1014E000969587959695879596958795880F991FD8
:1014F0009C01220F331F220F331F820F931F9A016B
:10150000281B390BC901C0969093CE148093CD143B
:101510008091CD149091CE148FDD81E089838E81EE
:101520009F81029719F089818130C9F58C819D8155
:101530009C01ADECBCEC0E9425299695879596956B
:1015400087959695879590938714809386144091FC
:101550008614509187149A01ADECBCEC0E942529A9
:10156000969587959695879596958795880F991F57
:101570009C01220F331F220F331F820F931F9A01EA
:10158000281B390BC901C09690938A148093891443
:101590008091891490918A144FDD81E089838E8136
:1015A0009F81019719F08981813021F54C815D81FE
:1015B0009A01ADECBCEC0E942529969587959695ED
:1015C000879596958795880F991F9C01220F331F49
:1015D000220F331F820F931F9A01281B390BC90159
:1015E000C0969093D0148093CF148091CF14909193
:1015F000D01422DD8E819F81069714F085E41CDDD6
:1016000027960FB6F894DEBF0FBECDBFDF91CF9106
:101610000895CF93DF93CDB7DEB7CC53D1400FB64B
:10162000F894DEBF0FBECDBF9E01275C3E4FF9018F
:1016300091838083CE01855C9E4FFC017183608322
:101640001E821D821C861B86CE01875C9E4F9E01DA
:10165000275C3E4FF9012081318121503109FC0185
:1016600031832083CE01855C9E4F9E01255C3E4FD9
:10167000F9012081318121503109FC01318320831E
:1016800018861F8247C0CE01875C9E4FFC01808177
:10169000918140E3489F9001499F300D11248F8133
:1016A0009885820F931F880F991F80509E4FFC01D1
:1016B000208131818F819885880F991FAE014F5FFE
:1016C0005F4F840F951F0C96FC01318320839E0190
:1016D0002F583F4F8F819885880F991F820F931F36
:1016E0009E01275C3E4FF90120813181FC0131834D
:1016F00020839E012B523F4F8F819885880F991F21
:10170000820F931FFC01118210828F8198850196B0
:1017100098878F8380910014909101142F813885D0
:10172000281739070CF4AFCFCE01875C9E4FFC0120
:1017300080819181880F991F9E012F5F3F4F820FFB
:10174000931F0C96FC01118210829E012B523F4F79
:10175000CE01875C9E4FFC0180819181880F991F8B
:10176000820F931F21E030E0FC013183208381E070
:1017700090E09A838983D6C08FE097E29C838B8325
:1017800018861F8238C08F819885880F991F9E0107
:101790002F5F3F4F820F931F0C96FC0120813181F8
:1017A0008B819C81281739070CF59E012B523F4FE6
:1017B0008F819885880F991F820F931FFC0180816C
:1017C0009181892B99F48F819885880F991F9E01AB
:1017D0002F5F3F4F820F931F0C96FC0180819181F8
:1017E0009C838B838F8198859E838D838F81988541
:1017F000019698878F8380910014909101142F8116
:101800003885281739070CF4BECF9E012B523F4F65
:101810008D819E81880F991F820F931F21E030E0F8
:10182000FC013183208318861F826DC09E012B52DC
:101830003F4F8F819885880F991F820F931FFC015E
:1018400080819181892B09F059C08D819E8140E36F
:10185000489F9001499F300D11248F819885820FF8
:10186000931F880F991F80509E4FFC01208131816A
:101870008B819C81280F391F8F819885880F991F34
:10188000AE014F5F5F4F840F951F0C96FC01808166
:1018900091812817390794F58D819E8140E3489FF7
:1018A0009001499F300D11248F819885820F931FDD
:1018B000880F991F80509E4FFC01208131818B81C0
:1018C0009C81280F391F8F819885880F991FAE0141
:1018D0004F5F5F4F840F951F0C96FC01318320836F
:1018E0009E012F583F4F8F819885880F991F820F37
:1018F000931F2D813E81FC01318320838F81988548
:10190000019698878F8380910014909101142F8104
:101910003885281739070CF489CF89819A81019677
:101920009A83898380910014909101149C01215025
:10193000310989819A81821793070CF41DCF18868B
:101940001F8251C0CE01855C9E4F2F813885FC01DE
:10195000808191812817390709F040C01C861B86B9
:101960008F8198859C012F5F3F4F8B859C85880FC9
:10197000991F8A5B9B4EFC01318320838F81988560
:101980009A8789879E012F583F4F89859A85880FAE
:10199000991F820F931FFC01808191819A8789870B
:1019A0008B859C8501969C878B8789859A859C0170
:1019B0002F5F3F4F8B859C85880F991F8A5B9B4EBD
:1019C000FC0131832083CE01875C9E4F29853A85B7
:1019D000FC018081918128173907A1F68F819885B4
:1019E000019698878F8380910014909101142F8124
:1019F0003885281739070CF4A5CFC45CDE4F0FB625
:101A0000F894DEBF0FBECDBFDF91CF910895CF9385
:101A1000DF93CDB7DEB787E290E027E230E0F9014F
:101A20002081276FFC01208388E290E028E230E0EB
:101A3000F90120812078FC012083DF91CF91089566
:101A4000CF93DF93CDB7DEB78DE290E02DE230E0AB
:101A5000F90120812F77FC0120838EE290E02EE2B5
:101A600030E0F90120812068FC012083DF91CF91D3
:101A70000895CF93DF93CDB7DEB784E290E024E200
:101A800030E0F90120812062FC01208385E290E0B2
:101A900025E230E0F90120812062FC012083DF9102
:101AA000CF910895CF93DF93CDB7DEB780E390E079
:101AB000FC01108281E390E0FC01108287E091E05C
:101AC000FC01108288E091E0FC011082DF91CF914F
:101AD0000895CF93DF93CDB7DEB781E290E021E2A6
:101AE00030E0F90120812F60FC01208382E290E048
:101AF00022E230E0F9012081207FFC0120838AE08E
:101B000091E02AE031E0F90120812861FC01208385
:101B10008BE091E02BE031E0F90120812861FC01AC
:101B20002083DF91CF910895CF93DF93CDB7DEB7B8
:101B30008DE290E02DE230E0F90120812F7EFC0162
:101B400020838EE290E02EE230E0F90120812061D6
:101B5000FC012083DF91CF910895CF93DF93CDB720
:101B6000DEB78DE290E02DE230E0F90120812F7D9B
:101B7000FC0120838EE290E02EE230E0F90120812A
:101B80002062FC012083DF91CF910895CF93DF93F2
:101B9000CDB7DEB787E290E027E230E0F90120819F
:101BA0002860FC01208388E290E028E230E0F9011F
:101BB0002081277FFC012083DF91CF910895CF936F
:101BC000DF93CDB7DEB723DF6DDF3ADF52DF81DF92
:101BD000DDDFAADFC2DFDF91CF910895CF93DF93DE
:101BE000CDB7DEB7F8948AE690E02AE630E0F90156
:101BF00020812260FC0120838DE390E02DE330E022
:101C0000F90120812061FC0120837894DF91CF913C
:101C10000895CF93DF93CDB7DEB7F8948AE690E0CE
:101C20002AE630E0F90120812860FC0120838DE361
:101C300090E02DE330E0F90120812062FC01208357
:101C40007894DF91CF9108951F920F9200905F00DA
:101C50000F9211248F939F93AF93BF93CF93DF93F2
:101C6000CDB7DEB780910C1490910D14A0910E1495
:101C7000B0910F140196A11DB11D80930C14909387
:101C80000D14A0930E14B0930F14DF91CF91BF9158
:101C9000AF919F918F910F9000925F000F901F90D6
:101CA00018951F920F9200905F000F9211248F934E
:101CB0009F93AF93BF93CF93DF93CDB7DEB7809160
:101CC000081490910914A0910A14B0910B14019674
:101CD000A11DB11D8093081490930914A0930A14B8
:101CE000B0930B14DF91CF91BF91AF919F918F91E2
:101CF0000F9000925F000F901F901895CF93DF9385
:101D0000CDB7DEB72A970FB6F894DEBF0FBECDBFB2
:101D10009A87898719821A821B821C821D821E82E1
:101D20001F82188689859A85CC01A0E0B0E0BC01AD
:101D3000CD010E940C28DC01CB0128E431EE42E801
:101D400050E4BC01CD010E947827DC01CB018983DE
:101D50009A83AB83BC8369817A818B819C810E9449
:101D6000E027DC01CB01CC01A0E0B0E08D839E83B5
:101D7000AF83B88710920C1410920D1410920E14A9
:101D800010920F14109208141092091410920A1451
:101D900010920B1420910C1430910D1440910E14DC
:101DA00050910F1471E08D819E81AF81B885281705
:101DB00039074A075B0708F470E020910814309156
:101DC000091440910A1450910B1461E08D819E8199
:101DD000AF81B885281739074A075B0708F460E028
:101DE000872F862B882309F001C0D4CFEFD22A9603
:101DF0000FB6F894DEBF0FBECDBFDF91CF9108952F
:101E0000CF93DF93CDB7DEB72A970FB6F894DEBF36
:101E10000FBECDBF9A87898719821A821B821C82C6
:101E20001D821E821F82188689859A85CC01A0E0BA
:101E3000B0E0BC01CD010E940C28DC01CB0125EEF5
:101E400030ED4AEA50E4BC01CD010E947827DC0164
:101E5000CB0189839A83AB83BC8369817A818B812F
:101E60009C810E94E027DC01CB018D839E83AF83A0
:101E7000B88710920C1410920D1410920E14109238
:101E80000F1420910C1430910D1440910E145091A8
:101E90000F148D819E81AF81B88582179307A407A7
:101EA000B50708F401C0EDCF91D22A960FB6F89489
:101EB000DEBF0FBECDBFDF91CF910895CF93DF93EB
:101EC0001F921F92CDB7DEB79A8389835BD2898137
:101ED0009A8196DF0F900F90DF91CF910895CF9365
:101EE000DF931F921F92CDB7DEB79A83898353D2B7
:101EF00089819A8185DF0F900F90DF91CF910895AE
:101F0000CF93DF93CDB7DEB760970FB6F894DEBFFF
:101F10000FBECDBF988B8F878CE390E0CFDF56D27A
:101F200080E090E0A8ECB2E489839A83AB83BC8321
:101F300026E636E646E655E469817A818B819C8106
:101F40000E94C228DC01CB018D839E83AF83B887BA
:101F500020E030E040E85FE36D817E818F819885ED
:101F60000E94742788232CF481E090E09A87898767
:101F70003FC020E03FEF4FE757E46D817E818F81C6
:101F800098850E94BE2818164CF520E030E040E20B
:101F900051E469817A818B819C810E94C228DC0195
:101FA000CB01BC01CD010E94E027DC01CB019A8767
:101FB00089870FC080E791E09C878B878B859C8504
:101FC0000197F1F79C878B8789859A8501979A8776
:101FD000898789859A85892B69F714C06D817E81EF
:101FE0008F8198850E94E027DC01CB019A87898741
:101FF00089859A859E878D878D859E850197F1F7C6
:102000009E878D87DAD18F85988978DE60960FB6A6
:10201000F894DEBF0FBECDBFDF91CF910895CF936F
:10202000DF93CDB7DEB760970FB6F894DEBF0FBE73
:10203000CDBF988B8F878CE390E040DFC7D180E0E5
:1020400090E0A8ECB2E489839A83AB83BC8326E654
:1020500036E646E655E469817A818B819C810E944F
:10206000C228DC01CB018D839E83AF83B88720E03B
:1020700030E040E85FE36D817E818F8198850E942A
:10208000742788232CF481E090E09A8789873FC0E9
:1020900020E03FEF4FE757E46D817E818F81988587
:1020A0000E94BE2818164CF520E030E040E251E4D2
:1020B00069817A818B819C810E94C228DC01CB01DD
:1020C000BC01CD010E94E027DC01CB019A87898702
:1020D0000FC080E791E09C878B878B859C8501975B
:1020E000F1F79C878B8789859A8501979A878987DD
:1020F00089859A85892B69F714C06D817E818F81CE
:1021000098850E94E027DC01CB019A878987898521
:102110009A859E878D878D859E850197F1F79E878D
:102120008D8742D18F859889E9DD60960FB6F89446
:10213000DEBF0FBECDBFDF91CF910895CF93DF9368
:102140001F92CDB7DEB7198286E290E0FC01808154
:10215000898389818860898388E290E02981FC01F4
:1021600020830F90DF91CF910895CF93DF931F923B
:10217000CDB7DEB7198286E290E0FC0180818983C9
:102180008981877F898388E290E02981FC0120830F
:102190000F90DF91CF910895CF93DF93CDB7DEB746
:1021A00081EC90E0FC01108280EC90E0FC01108258
:1021B00082EC90E026E0FC01208384EC90E02FE5A7
:1021C000FC01208385EC90E0FC01108281EC90E022
:1021D00028E9FC012083DF91CF910895CF93DF930D
:1021E000CDB7DEB781E291E0FC01108285E291E09B
:1021F0002FEFFC01208384E291E021E0FC012083A9
:1022000089E291E0FC01108288E291E02FEFFC016D
:1022100020838BE291E0FC0110828AE291E02FEFB3
:10222000FC0120838DE291E0FC0110828CE291E0C0
:102230002FEFFC01208380E291E029EAFC0120835A
:1022400081E291E02BE0FC012083DF91CF910895A2
:10225000CF93DF93CDB7DEB78AE790E0FC01108221
:102260008BE790E0FC0110828CE790E020E2FC011B
:10227000208380E590E020E8FC0120838AE790E05D
:1022800026E8FC012083DF91CF910895CF93DF935F
:102290001F921F92CDB7DEB78A838A81883028F0DB
:1022A0008BE790E028E0FC0120838A8187708A8395
:1022B0008CE790E02A812062FC0120838AE790E08D
:1022C0002AE730E0F90120812064FC01208300002E
:1022D0008AE790E0FC018081882F90E08071992747
:1022E000892BB1F389E790E0FC01808189838AE73B
:1022F00090E02AE730E0F90120812061FC01208391
:102300008BE790E0FC01108289810F900F90DF91A4
:10231000CF910895CF93DF931F921F92CDB7DEB771
:1023200089836A8388E291E02981FC0120838AE223
:1023300091E02A81FC0120830F900F90DF91CF91D3
:102340000895CF93DF931F921F92CDB7DEB78A8394
:1023500019828A818F708A8382E290E0FC018081F9
:1023600089838981807F898399818A81892B898367
:1023700082E290E02981FC0120830F900F90DF9191
:10238000CF910895CF93DF93CDB7DEB786E0D9DF45
:10239000DF91CF910895CF93DF93CDB7DEB789E07A
:1023A000D0DFDF91CF910895CF93DF93CDB7DEB724
:1023B0008AE0C7DFDF91CF910895CF93DF93CDB748
:1023C000DEB785E0BEDFDF91CF910895CF93DF9335
:1023D000CDB7DEB780E0B5DFDF91CF910895CF9321
:1023E000DF93CDB7DEB784E0ACDFDF91CF91089506
:1023F000CF93DF93CDB7DEB782E0A3DFDF91CF913C
:102400000895CF93DF93CDB7DEB781E890E0FC016C
:10241000108285E890E02CEFFC01208384E890E0B6
:1024200021E0FC01208389E890E023E0FC01208387
:1024300088E890E02FEFFC0120838BE890E023E018
:10244000FC0120838AE890E02FEFFC0120838DE8D7
:1024500090E023E0FC0120838CE890E02FEFFC016A
:10246000208387E890E023E0FC01208386E890E069
:102470002FEFFC01208380E890E02BEAFC01208311
:1024800082E890E0FC01108281E890E02CE0FC0101
:102490002083DF91CF910895CF93DF93CDB7DEB73F
:1024A000F8948DDBD5DE9ADE77DEABDF97DBB1DB30
:1024B0007894DF91CF9108950F931F93CF93DF937B
:1024C00000D01F921F92CDB7DEB78D8319821A827A
:1024D0001B821C828D81882F90E0A0E0B0E0BC01BF
:1024E000CD010E940C28DC01CB012BE734E14EEE3C
:1024F0005FE3BC01CD010E947827DC01CB0120E025
:1025000030E04CE052E4BC01CD010E941027DC0118
:10251000CB0189839A83AB83BC8389E890E0FC017B
:10252000108208E810E069817A818B819C810E9489
:10253000E027DC01CB01F80180830F900F900F9012
:102540000F900F90DF91CF911F910F910895CF932E
:10255000DF93CDB7DEB784E5AFDFDF91CF9108958C
:102560001F920F9200905F000F92112400905B0069
:102570000F922F933F938F939F93EF93FF93CF935C
:10258000DF93CDB7DEB786EC90E0FC018081882F29
:1025900090E09093111480931014809110149091F6
:1025A00011148F3F910551F48091041490910514FA
:1025B0000196909305148093041425C08091101403
:1025C0009091111418161906F4F48091101490913A
:1025D0001114C397C4F48091121490911314209194
:1025E000101430911114880F991F85579B4EFC01D0
:1025F000318320838091121490911314019690934B
:10260000131480931214DF91CF91FF91EF919F915A
:102610008F913F912F910F9000925B000F9000924D
:102620005F000F901F901895CF93DF9300D000D0DC
:10263000CDB7DEB79A8389837C836B835E834D83BA
:1026400089819A81029759F48B819C81039739F48F
:102650008D819E81839719F48FE390E0E0DC89817E
:102660009A81839759F48B819C81039739F48D81EA
:102670009E81029719F48FE390E042DC89819A8170
:10268000029759F48B819C81039739F48D819E8147
:10269000849719F48BE790E0C2DC89819A81849752
:1026A00059F48B819C81039739F48D819E81029727
:1026B00019F48DE790E024DC89819A81049759F41C
:1026C0008B819C81039739F48D819E81839719F4C6
:1026D0008BE790E015DC89819A81839759F48B818F
:1026E0009C81039739F48D819E81049719F48DE7BD
:1026F00090E095DC89819A81049759F48B819C81C3
:10270000039739F48D819E81849719F48FE390E0CB
:10271000F7DB89819A81849759F48B819C81039797
:1027200039F48D819E81049719F48FE390E077DC72
:1027300089819A81849759F48B819C81039739F41C
:102740008D819E81839719F48BE790E068DC898105
:102750009A81839759F48B819C81039739F48D81F9
:102760009E81849719F48BE790E0CADB89819A8176
:10277000039759F48B819C81839739F48D819E81D5
:10278000849719F48BE790E04ADC89819A818497D9
:1027900059F48B819C81839739F48D819E810397B5
:1027A00019F48BE790E0ACDB89819A81889759F422
:1027B0008B819C81839739F48D819E81849719F454
:1027C0008FE390E09DDB89819A81849759F48B8116
:1027D0009C81839739F48D819E81889719F48FE3CA
:1027E00090E01DDC89819A81839759F48B819C81CB
:1027F000889739F48D819E81879719F48FE390E053
:102800000EDC89819A81879759F48B819C81889706
:1028100039F48D819E81839719F48FE390E070DB0A
:1028200089819A81839759F48B819C81889739F4A7
:102830008D819E81829719F48FE390E061DB89811D
:102840009A81829759F48B819C81889739F48D8184
:102850009E81839719F48FE390E0E1DB89819A816F
:10286000829759F48B819C81889739F48D819E8160
:10287000879719F48FE390E043DB89819A818797EA
:1028800059F48B819C81889739F48D819E81829740
:1028900019F48FE390E0C3DB89819A81879759F41B
:1028A0008B819C81889739F48D819E81899719F459
:1028B0008BE790E0B4DB89819A81899759F48B8109
:1028C0009C81889739F48D819E81879719F48BE7D5
:1028D00090E016DB89819A81829759F48B819C81E3
:1028E000889739F48D819E81899719F48BE790E060
:1028F00007DB89819A81899759F48B819C8188971C
:1029000039F48D819E81829719F48BE790E087DB03
:1029100089819A81839759F48B819C81849739F4BA
:102920008D819E81859719F48FE390E0E9DA8981A2
:102930009A81859759F48B819C81849739F48D8194
:102940009E81839719F48FE390E069DB89819A81F6
:10295000039759F48B819C81849739F48D819E81F2
:10296000839719F48BE790E0CBDA89819A8183977A
:1029700059F48B819C81849739F48D819E810397D2
:1029800019F48BE790E0BCDA89819A81849759F435
:102990008B819C81859739F48D819E81869719F46E
:1029A0008FE390E0ADDA89819A81869759F48B8123
:1029B0009C81859739F48D819E81849719F48FE3EA
:1029C00090E02DDB89819A81499759F48B819C8114
:1029D000859739F48D819E81C09719F48BE790E03B
:1029E0001EDB89819A81C09759F48B819C818597E0
:1029F00039F48D819E81499719F48BE790E080DA54
:102A000089819A81849759F48B819C81859739F4C7
:102A10008D819E81499719F48FE390E000DB8981D5
:102A20009A81499759F48B819C81859739F48D81DE
:102A30009E81849719F48FE390E062DA89819A810C
:102A4000869759F48B819C81859739F48D819E817D
:102A5000C09719F48BE790E053DA89819A81C09787
:102A600059F48B819C81859739F48D819E8186975D
:102A700019F48BE790E044DA89819A81499759F4F7
:102A80008B819C81859739F48D819E81869719F47D
:102A90008FE390E0C4DA89819A81869759F48B811B
:102AA0009C81859739F48D819E81499719F48FE334
:102AB00090E026DA89819A81489759F48B819C812C
:102AC000479739F48D819E81499719F48BE790E0FF
:102AD00017DA89819A81499759F48B819C814797AC
:102AE00039F48D819E81489719F48DE790E097DA4B
:102AF00089819A81489759F48B819C81479739F451
:102B00008D819E814A9719F48FE390E0F9D98981EC
:102B10009A814A9759F48B819C81479739F48D812A
:102B20009E81489719F48FE390E079DA89819A8140
:102B3000469759F48B819C81479739F48D819E810A
:102B40004A9719F48BE790E06ADA89819A814A976B
:102B500059F48B819C81479739F48D819E814697EA
:102B600019F48DE790E0CCD989819A81469759F480
:102B70008B819C81479739F48D819E81499719F407
:102B80008FE390E04CDA89819A81499759F48B81DF
:102B90009C81479739F48D819E81469719F48FE384
:102BA00090E0AED989819A81499759F48B819C81B3
:102BB000479739F48D819E814A9719F48BE790E00D
:102BC0009FD989819A814A9759F48B819C81479733
:102BD00039F48D819E81499719F48BE790E01FDAD3
:102BE00089819A814A9759F48B819C81C09739F4E5
:102BF0008D819E818F9719F48FE390E081D989812F
:102C00009A818F9759F48B819C81C09739F48D817B
:102C10009E814A9719F48FE390E001DA89819A81C5
:102C20004A9759F48B819C81C09739F48D819E819C
:102C3000859719F48BE790E063D989819A8185970C
:102C400059F48B819C81C09739F48D819E814A977C
:102C500019F48BE790E0E3D989819A814A9759F476
:102C60008B819C81C09739F48D819E814B9719F49B
:102C70008FE390E0D4D989819A814B9759F48B8165
:102C80009C81C09739F48D819E814A9719F48FE316
:102C900090E036D989819A814B9759F48B819C8138
:102CA000C09739F48D819E818F9719F48FE390E05E
:102CB000B6D989819A818F9759F48B819C81C0976D
:102CC00039F48D819E814B9719F48FE390E018D9E8
:102CD00089819A81859759F48B819C81C09739F4B9
:102CE0008D819E818F9719F48BE790E009D98981B6
:102CF0009A818F9759F48B819C81C09739F48D818B
:102D00009E81859719F48BE790E089D989819A8112
:102D10004C9759F48B819C814B9739F48D819E811E
:102D2000C09719F48FE390E07AD989819A81C0978E
:102D300059F48B819C814B9739F48D819E814C97FE
:102D400019F48FE390E0DCD889819A81439759F494
:102D50008B819C814B9739F48D819E814C9719F41E
:102D60008BE790E05CD989819A814C9759F48B81EB
:102D70009C814B9739F48D819E81439719F48BE7A1
:102D800090E0BED889819A81439759F48B819C81C8
:102D90004C9739F48D819E814B9719F48BE790E025
:102DA000AFD889819A814B9759F48B819C814C973C
:102DB00039F48D819E81439719F48BE790E02FD9E8
:102DC00089819A818D9759F48B819C814C9739F434
:102DD0008D819E814B9719F48FE390E020D98981F2
:102DE0009A814B9759F48B819C814C9739F48D8152
:102DF0009E818D9719F48FE390E082D889819A8122
:102E0000449759F48B819C81439739F48D819E813D
:102E10004B9719F48BE790E073D889819A814B978F
:102E200059F48B819C81439739F48D819E8144971D
:102E300019F48DE790E0F3D889819A81449759F489
:102E40008B819C81439739F48D819E814C9719F435
:102E50008FE390E055D889819A814C9759F48B8102
:102E60009C81439739F48D819E81449719F48FE3B7
:102E700090E0D5D889819A81429759F48B819C81C1
:102E8000439739F48D819E814B9719F48FE390E03D
:102E9000C6D889819A814B9759F48B819C8143973D
:102EA00039F48D819E81429719F48FE390E028D800
:102EB00089819A81429759F48B819C81439739F497
:102EC0008D819E814C9719F48BE790E0A8D8898179
:102ED0009A814C9759F48B819C81439739F48D8169
:102EE0009E81429719F48DE790E00AD889819A81F2
:102EF0004B9761F48B819C81439741F48D819E8136
:102F00004C9721F48BE790E00E94800F89819A8191
:102F10004C9759F48B819C81439739F48D819E8124
:102F20004B9719F48BE790E07AD889819A814C9776
:102F300061F48B819C818D9741F48D819E818E9768
:102F400021F48FE390E00E94800F89819A818E970F
:102F500059F48B819C818D9739F48D819E814C979A
:102F600019F48FE390E05BD889819A814C9759F4EA
:102F70008B819C818D9739F48D819E814D9719F4B9
:102F80008FE390E04CD889819A814D9761F48B81D1
:102F90009C818D9741F48D819E814C9721F48FE324
:102FA00090E00E94800F89819A818E9761F48B81D5
:102FB0009C818D9741F48D819E814D9721F48FE303
:102FC00090E00E94800F89819A814D9759F48B81FE
:102FD0009C818D9739F48D819E818E9719F48FE3B2
:102FE00090E01DD889819A818C9759F48B819C81BE
:102FF0008D9739F48D819E818E9719F48BE790E03F
:103000000ED889819A818E9761F48B819C818D97EE
:1030100041F48D819E818C9721F48BE790E00E9492
:10302000800F89819A818C9761F48B819C818D9727
:1030300041F48D819E814D9721F48BE790E00E94B1
:10304000800F89819A814D9761F48B819C818D9746
:1030500041F48D819E818C9721F48BE790E00E9452
:103060000F1089819A814D9761F48B819C810F9714
:1030700041F48D819E814E9721F48BE790E00E9470
:10308000800F89819A814E9761F48B819C810F9783
:1030900041F48D819E814D9721F48BE790E00E9451
:1030A0000F1089819A814D9761F48B819C810F97D4
:1030B00041F48D819E81409721F48DE790E00E943C
:1030C0000F1089819A81409761F48B819C810F97C1
:1030D00041F48D819E814D9721F48BE790E00E9411
:1030E000800F89819A814D9761F48B819C810F9724
:1030F00041F48D819E810E9721F48FE390E00E9430
:10310000800F89819A810E9761F48B819C810F9742
:1031100041F48D819E814D9721F48FE390E00E94D0
:103120000F1089819A81409761F48B819C810F9760
:1031300041F48D819E814E9721F48FE390E00E94AF
:10314000800F89819A814E9761F48B819C810F97C2
:1031500041F48D819E81409721F48FE390E00E949D
:103160000F1089819A810E9761F48B819C810F9752
:1031700041F48D819E814E9721F48BE790E00E946F
:10318000800F89819A814E9761F48B819C810F9782
:1031900041F48D819E810E9721F48DE790E00E948D
:1031A0000F1089819A814E9761F48B819C818C9755
:1031B00041F48D819E818D9721F48BE790E00E94F0
:1031C000800F89819A818D9761F48B819C818C9786
:1031D00041F48D819E814E9721F48BE790E00E940F
:1031E0000F1089819A814E9761F48B819C818C9715
:1031F00041F48D819E814F9721F48FE390E00E94EE
:103200000F1089819A814F9761F48B819C818C97F3
:1032100041F48D819E814E9721F48FE390E00E94CE
:10322000800F89819A814E9761F48B819C818C9764
:1032300041F48D819E818B9721F48FE390E00E9471
:10324000800F89819A818B9761F48B819C818C9707
:1032500041F48D819E814E9721F48FE390E00E948E
:103260000F1089819A818B9761F48B819C818C9757
:1032700041F48D819E814F9721F48FE390E00E946D
:10328000800F89819A814F9761F48B819C818C9703
:1032900041F48D819E818B9721F48FE390E00E9411
:1032A0000F1089819A818B9761F48B819C818C9717
:1032B00041F48D819E818D9721F48BE790E00E94EF
:1032C0000F1089819A818D9761F48B819C818C97F5
:1032D00041F48D819E818B9721F48BE790E00E94D1
:1032E000800F89819A818C9761F48B819C814F97A3
:1032F00041F48D819E81809721F48FE390E00E94BC
:10330000800F89819A81809761F48B819C814F978E
:1033100041F48D819E818C9721F48FE390E00E948F
:103320000F1089819A81809761F48B819C814F97DE
:1033300041F48D819E810B9721F48BE790E00E94F0
:10334000800F89819A810B9761F48B819C814F97C3
:1033500041F48D819E81809721F48BE790E00E945B
:103360000F1089819A810B9761F48B819C818097E2
:1033700041F48D819E814F9721F48BE790E00E946C
:10338000800F89819A814F9761F48B819C8180970E
:1033900041F48D819E810B9721F48BE790E00E9490
:1033A0000F1089819A814F9761F48B819C8180975E
:1033B00041F48D819E81899721F48FE390E00E94F2
:1033C000800F89819A81899761F48B819C81809794
:1033D00041F48D819E814F9721F48FE390E00E940C
:1033E0000F1089819A81809761F48B819C810B9762
:1033F00041F48D819E814F9721F48BE790E00E94EC
:103400000F1089819A814F9761F48B819C810B9772
:1034100041F48D819E810C9721F48DE790E00E940C
:103420000F1089819A810C9761F48B819C810B9795
:1034300041F48D819E814F9721F48BE790E00E94AB
:10344000800F89819A810A9761F48B819C810B9707
:1034500041F48D819E81809721F48BE790E00E945A
:103460000F1089819A81809761F48B819C810B97E1
:1034700041F48D819E810A9721F48DE790E00E94AE
:10348000800F89819A810C9761F48B819C810B97C5
:1034900041F48D819E81809721F48FE390E00E941A
:1034A000800F89819A81809761F48B819C810B9731
:1034B00041F48D819E810C9721F48FE390E00E946E
:1034C0000F1089819A810A9761F48B819C810B97F7
:1034D00041F48D819E814F9721F48FE390E00E940B
:1034E0000F1089819A814F9761F48B819C810B9792
:1034F00041F48D819E810A9721F48FE390E00E9430
:10350000800F89819A818A9761F48B819C81899748
:1035100041F48D819E81889721F48BE790E00E9491
:10352000800F89819A81889761F48B819C8189972A
:1035300041F48D819E818A9721F48BE790E00E946F
:103540000F1089819A818A9761F48B819C81899778
:1035500041F48D819E81809721F48BE790E00E9459
:10356000800F89819A81809761F48B819C818997F2
:1035700041F48D819E818A9721F48FE390E00E942F
:10358000800F89819A818A9761F48B819C818997C8
:1035900041F48D819E81819721F48FE390E00E9418
:1035A000800F89819A81819761F48B819C818997B1
:1035B00041F48D819E818A9721F48FE390E00E94EF
:1035C0000F1089819A81809761F48B819C81899702
:1035D00041F48D819E81819721F48FE390E00E94D8
:1035E0000F1089819A81819761F48B819C818997E1
:1035F00041F48D819E81809721F48FE390E00E94B9
:10360000800F89819A81819761F48B819C81899750
:1036100041F48D819E81889721F48BE790E00E9490
:103620000F1089819A81889761F48B819C81899799
:1036300041F48D819E81819721F48BE790E00E9477
:10364000800F89819A81069761F48B819C8107970D
:1036500041F48D819E81829721F48BE790E00E9456
:103660000F1089819A81829761F48B819C810797E1
:1036700041F48D819E81069721F48DE790E00E94B0
:10368000800F89819A81069761F48B819C810797CD
:1036900041F48D819E81819721F48FE390E00E9417
:1036A0000F1089819A81819761F48B819C810797A2
:1036B00041F48D819E81069721F48FE390E00E9472
:1036C000800F89819A81829761F48B819C81079711
:1036D00041F48D819E81819721F48BE790E00E94D7
:1036E0000F1089819A81819761F48B819C81079762
:1036F00041F48D819E81829721F48BE790E00E94B6
:10370000800F89819A81089761F48B819C8107974A
:1037100041F48D819E81819721F48BE790E00E9496
:10372000800F89819A81819761F48B819C810797B1
:1037300041F48D819E81089721F48DE790E00E94ED
:103740000F1089819A81089761F48B819C8107977A
:1037500041F48D819E81829721F48FE390E00E9455
:10376000800F89819A81829761F48B819C81079770
:1037700041F48D819E81089721F48FE390E00E94AF
:103780000F1089819A81859761F48B819C8186973E
:1037900041F48D819E81879721F48FE390E00E9410
:1037A000800F89819A81869761F48B819C818797AC
:1037B00041F48D819E81889721F48FE390E00E94EF
:1037C000800F89819A81889761F48B819C8187978A
:1037D00041F48D819E81869721F48FE390E00E94D1
:1037E0000F1089819A81879761F48B819C818697DC
:1037F00041F48D819E81859721F48FE390E00E94B2
:103800000F1089819A81C09761F48B819C818F9779
:1038100041F48D819E818E9721F48FE390E00E9488
:103820000F1089819A818F9761F48B819C818E978B
:1038300041F48D819E818D9721F48FE390E00E9469
:103840000F1089819A818D9761F48B819C818E976D
:1038500041F48D819E818F9721F48FE390E00E9447
:10386000800F89819A818E9761F48B819C818F97DB
:1038700041F48D819E81C09721F48FE390E00E94F6
:10388000800F89819A818C9761F48B819C818B97C1
:1038900041F48D819E818A9721F48FE390E00E940C
:1038A0000F1089819A818B9761F48B819C818A9713
:1038B00041F48D819E81899721F48FE390E00E94ED
:1038C0000F1089819A81899761F48B819C818A97F5
:1038D00041F48D819E818B9721F48FE390E00E94CB
:1038E000800F89819A818A9761F48B819C818B9763
:1038F00041F48D819E818C9721F48FE390E00E94AA
:10390000800F29813A818D819E812817390721F402
:103910008AEB90E00E940F1026960FB6F894DEBF57
:103920000FBECDBFDF91CF9108950F931F93CF931B
:10393000DF93CDB7DEB7C65CD1090FB6F894DEBF12
:103940000FBECDBF0E944C120E9494000E941A0626
:103950000E94A71280E090E0A8ECB2E489839A83E9
:10396000AB83BC8380E090E0A8ECB2E48D839E83BF
:10397000AF83B88780E090E0A8ECB2E489879A87AB
:10398000AB87BC871E861D8688E290E09AA789A730
:1039900081E090E09E8B8D8B188E1F8A1A8E198E77
:1039A0008DE090E09C8F8B8F1CA61BA61AA219A2FB
:1039B0001EA61DA61CA21BA21EA21DA210920314CD
:1039C000109202140DC08CE290E0FC0180818823EB
:1039D0001CF4188E1F8A04C081E090E0988F8F8BB2
:1039E0008F89988D892B79F38F89988D019711F0A4
:1039F0000C9401270E94E6119E01215C3F4F80E05C
:103A000090E0A6E9B3E4F90180839183A283B383B4
:103A10008E010D5B1F4FCE01CF9626E636E646E6B9
:103A200055E4FC0160817181828193810E94C228EA
:103A3000DC01CB01F80180839183A283B383CE01A3
:103A40008D5B9F4F20E030E040E85FE3FC01608148
:103A50007181828193810E94742788234CF4CE0166
:103A6000895B9F4F21E030E0FC01318320836CC0F3
:103A7000CE018D5B9F4F20E03FEF4FE757E4FC0105
:103A800060817181828193810E94BE2818160CF09A
:103A900049C0CE01CF9620E030E040E251E4FC0185
:103AA00060817181828193810E94C228DC01CB01F7
:103AB0008E01095B1F4FBC01CD010E94E027DC0194
:103AC000CB01F8019183808324C0CE01875B9F4F97
:103AD00020E731E0FC0131832083CE01875B9F4FDB
:103AE000FC01808191810197F1F79E01275B3F4F97
:103AF000F90191838083CE01895B9F4F9E01295BF1
:103B00003F4FF9012081318121503109FC0131837E
:103B10002083CE01895B9F4FFC0180819181892B9D
:103B2000A1F62CC08E01095B1F4FCE018D5B9F4F0C
:103B3000FC0160817181828193810E94E027DC0118
:103B4000CB01F80191838083CE01855B9F4F9E015D
:103B5000295B3F4FF90120813181FC0131832083B2
:103B6000CE01855B9F4FFC01808191810197F1F728
:103B70009E01255B3F4FF9019183808381E590E0B1
:103B80000E94800F8AE590E00E946F0FCE018B5754
:103B90009F4F0297FC011182108218A61FA28BC1B1
:103BA0008FA198A5880F991F85579B4EFC01808196
:103BB00091819EA78DA72DA53EA58B8D9C8DB901CA
:103BC0000E94090B81E090E09E8B8D8B188A1F86E6
:103BD0001AC08F859889880F991F8A5B9B4EFC01BC
:103BE000208131818B8D9C8D2817390731F08D898B
:103BF0009E8901969E8B8D8B01C009C08F85988907
:103C00000196988B8F878F8598894E9714F38D89AD
:103C10009E8901979A8B898B188A1F8637C08F855A
:103C20009889880F991F8A5B9B4EFC018081918146
:103C3000909387148093861489899A89880F991F95
:103C40008A5B9B4EFC01208131818F859889880F8A
:103C5000991F8A5B9B4EFC013183208380918614DF
:103C6000909187149C0189899A89880F991F8A5B92
:103C70009B4EFC01318320838F8598890196988B18
:103C80008F8789899A8901979A8B898B2F853889A3
:103C900089899A892817390714F28D899E899E8F00
:103CA0008D8F80910614909107142DA53EA5B90122
:103CB0000E94090B81E090E09E8B8D8B188A1F86F5
:103CC0001CC08F859889880F991F8A5B9B4EFC01C9
:103CD00020813181809106149091071428173907AB
:103CE00031F08D899E8901969E8B8D8B01C009C014
:103CF0008F8598890196988B8F878F8598894E97A5
:103D000004F38D899E8901979A8B898B188A1F8667
:103D100037C08F859889880F991F8A5B9B4EFC015D
:103D200080819181909387148093861489899A89E0
:103D3000880F991F8A5B9B4EFC01208131818F8502
:103D40009889880F991F8A5B9B4EFC0131832083E1
:103D500080918614909187149C0189899A89880F93
:103D6000991F8A5B9B4EFC01318320838F85988944
:103D70000196988B8F8789899A8901979A8B898B6D
:103D80002F85388989899A892817390714F28D89EE
:103D90009E8998A38F8F89A19AA1892B61F48FA105
:103DA00098A5892B41F02F8D38A18DA19EA1820F5E
:103DB000931F98A38F8F8FA198A5892B09F449C0D1
:103DC00089A19AA1892B09F444C08FA198A50197D4
:103DD000880F991F85579B4EFC012081318189A155
:103DE0009AA10197AE014B575F4F880F991F840F1F
:103DF000951FFC01808191812817390741F42D8D91
:103E00003E8D8BA19CA1820F931F9E8F8D8F8FA1C2
:103E100098A50197880F991F85579B4EFC0120811B
:103E2000318189A19AA10197AE014B575F4F880F4D
:103E3000991F840F951FFC018081918128173907F4
:103E400041F02F8D38A18DA19EA1820F931F98A3C1
:103E50008F8F8D8D9E8D9CA38BA38F8D98A19EA3FC
:103E60008DA32D8D3E8D8F8D98A128173907C4F411
:103E70009E012B573F4F89A19AA1880F991F820F4E
:103E8000931F2DA53EA5FC013183208389A19AA112
:103E900001969AA389A38DA59EA59C8F8B8F06C0A2
:103EA0008DA59EA590930714809306148FA198A5C5
:103EB000019698A78FA38FA198A582970CF470CE36
:103EC0008DE090E09C8F8B8F1C8A1B8A95C78B8D11
:103ED0009C8D98AB8FA79E012B573F4F8B899C8958
:103EE000880F991F820F931FFC01808191819AABEB
:103EF00089AB81E090E09E8B8D8B29A93AA98FA593
:103F000098A9B9010E94090B81E090E09E8B8D8BEE
:103F1000188A1F861AC08F859889880F991F8A5B17
:103F20009B4EFC01208131818FA598A92817390764
:103F300031F08D899E8901969E8B8D8B01C009C0C1
:103F40008F8598890196988B8F878F8598894E9752
:103F500014F38D899E8901979A8B898B188A1F8605
:103F600037C08F859889880F991F8A5B9B4EFC010B
:103F700080819181909387148093861489899A898E
:103F8000880F991F8A5B9B4EFC01208131818F85B0
:103F90009889880F991F8A5B9B4EFC01318320838F
:103FA00080918614909187149C0189899A89880F41
:103FB000991F8A5B9B4EFC01318320838F859889F2
:103FC0000196988B8F8789899A8901979A8B898B1B
:103FD0002F85388989899A892817390714F20E9410
:103FE000A71283E00E944611882F90E0A0E0B0E085
:103FF000BC01CD010E940C28DC01CB018BAB9CAB3A
:10400000ADABBEAB82E00E944611882F90E0A0E0ED
:10401000B0E0BC01CD010E940C28DC01CB018FABCC
:1040200098AFA9AFBAAF81E00E944611882F90E007
:10403000A0E0B0E0BC01CD01EFD7DC01CB018BAF3C
:104040009CAFADAFBEAF89A59AA5092E000CAA0BF7
:10405000BB0BBC01CD01E2D7DC01CB012BA93CA9F4
:104060004DA95EA9BC01CD010E94BE2818167CF5A1
:1040700089A59AA5092E000CAA0BBB0BBC01CD018A
:10408000CDD7DC01CB012FA938AD49AD5AADBC016C
:10409000CD012AD71816DCF089A59AA5092E000CA7
:1040A000AA0BBB0BBC01CD01B9D7DC01CB012BADF9
:1040B0003CAD4DAD5EADBC01CD010E94BE281816D1
:1040C00034F40E94C21166EE86EE0E948A1189A520
:1040D0009AA5092E000CAA0BBB0BBC01CD019ED7E3
:1040E000DC01CB012BA93CA94DA95EA9BC01CD01E6
:1040F000FBD6181684F189A59AA5092E000CAA0BE7
:10410000BB0BBC01CD018AD7DC01CB012FA938AD97
:1041100049AD5AADBC01CD010E94BE281816DCF491
:1041200089A59AA5092E000CAA0BBB0BBC01CD01D9
:1041300075D7DC01CB012BAD3CAD4DAD5EADBC0107
:10414000CD010E94BE28181634F40E94EF1166EECD
:1041500086EE0E948A1189A59AA5092E000CAA0B49
:10416000BB0BBC01CD015AD7DC01CB012BA93CA96B
:104170004DA95EA9BC01CD010E94BE28181674F598
:1041800089A59AA5092E000CAA0BBB0BBC01CD0179
:1041900045D7DC01CB012FA938AD49AD5AADBC01E3
:1041A000CD01ECD71816D4F489A59AA5092E000CD8
:1041B000AA0BBB0BBC01CD0131D7DC01CB012BAD70
:1041C0003CAD4DAD5EADBC01CD018ED6181634F0C0
:1041D0000E94F81166EE86EE0E948A1189A59AA5C2
:1041E000092E000CAA0BBB0BBC01CD0117D7DC01BB
:1041F000CB012BA93CA94DA95EA9BC01CD0174D668
:1042000018164CF189A59AA5092E000CAA0BBB0B18
:10421000BC01CD0103D7DC01CB012FA938AD49ADDD
:104220005AADBC01CD0160D61816ACF089A59AA58F
:10423000092E000CAA0BBB0BBC01CD01EFD6DC0193
:10424000CB012BAD3CAD4DAD5EADBC01CD014CD62F
:1042500018160CF07CC089A59AA5092E000CAA0B93
:10426000BB0BBC01CD01DAD6DC01CB012BA93CA9EB
:104270004DA95EA9BC01CD0137D618164CF189A510
:104280009AA5092E000CAA0BBB0BBC01CD01C6D60A
:10429000DC01CB012FA938AD49AD5AADBC01CD0130
:1042A00023D61816ACF089A59AA5092E000CAA0BE6
:1042B000BB0BBC01CD01B2D6DC01CB012BAD3CADBB
:1042C0004DAD5EADBC01CD0159D718160CF43FC001
:1042D00089A59AA5092E000CAA0BBB0BBC01CD0128
:1042E0009DD6DC01CB012BA93CA94DA95EA9BC013F
:1042F000CD0144D718160CF0D8C389A59AA5092E6C
:10430000000CAA0BBB0BBC01CD0188D6DC01CB0194
:104310002FA938AD49AD5AADBC01CD01E5D5181670
:104320000CF4C3C389A59AA5092E000CAA0BBB0BDC
:10433000BC01CD0173D6DC01CB012BAD3CAD4DAD45
:104340005EADBC01CD01D0D518160CF4AEC30E94F1
:10435000E6119E01235B3F4F80E090E0A8E4B3E4C8
:10436000F90180839183A283B3838E010F5A1F4F7B
:10437000CE01835B9F4F26E636E646E655E4FC0118
:104380006081718182819381FDD6DC01CB01F801CE
:1043900080839183A283B383CE018F5A9F4F20E005
:1043A00030E040E85FE3FC016081718182819381AC
:1043B0009BD588234CF4CE018B5A9F4F21E030E0EF
:1043C000FC013183208369C0CE018F5A9F4F20E0CA
:1043D0003FEF4FE757E4FC01608171818281938157
:1043E000CDD618160CF048C0CE01835B9F4F20E05D
:1043F00030E040E251E4FC0160817181828193816F
:10440000C1D6DC01CB018E010B5A1F4FBC01CD017F
:10441000D7D5DC01CB01F8019183808324C0CE0184
:10442000895A9F4F20E731E0FC0131832083CE0180
:10443000895A9F4FFC01808191810197F1F79E017C
:10444000295A3F4FF90191838083CE018B5A9F4FA8
:104450009E012B5A3F4FF9012081318121503109B2
:10446000FC0131832083CE018B5A9F4FFC01808158
:104470009181892BA1F62BC08E010B5A1F4FCE01C3
:104480008F5A9F4FFC01608171818281938198D501
:10449000DC01CB01F80191838083CE01875A9F4FC5
:1044A0009E012B5A3F4FF90120813181FC0131835C
:1044B0002083CE01875A9F4FFC0180819181019713
:1044C000F1F79E01275A3F4FF9019183808385E0E0
:1044D00090E00E946F0F0E94E6110E94A7128D8546
:1044E0009E85880F991F8A5B9B4EFC01808191817C
:1044F0009C8F8B8F8D859E850196880F991F8A5B77
:104500009B4EFC01808191819CA78BA70E941A067B
:10451000898D9A8D23E030E0AC0161E081E00E945A
:10452000C6098B8D9C8D23E030E0AC0165E081E015
:104530000E94C6098BA59CA523E030E0AC0169E090
:1045400081E00E94C6096BA97CA98DA99EA938D5D6
:10455000DC01CB0123E030E0AC0161E082E00E94AD
:10456000C6096FA978AD89AD9AAD2AD5DC01CB011A
:1045700023E030E0AC0165E082E00E94C6096BAD4B
:104580007CAD8DAD9EAD1CD5DC01CB0123E030E0D0
:10459000AC0169E082E00E94C6092B8D3C8D89A99F
:1045A0009AA92817390709F0A8C10E94E611C0C0CE
:1045B0009E01255A3F4F80E090E0A8ECB2E4F9015B
:1045C00080839183A283B3838E01015A1F4FCE0152
:1045D000855A9F4F26E636E646E655E4FC016081A3
:1045E000718182819381CED5DC01CB01F80180837A
:1045F0009183A283B383CE01815A9F4F20E030E0A4
:1046000040E85FE3FC0160817181828193816CD419
:1046100088234CF4CE018D599F4F21E030E0FC01FE
:104620003183208369C0CE01815A9F4F20E03FEF44
:104630004FE757E4FC0160817181828193819ED5AF
:1046400018160CF048C0CE01855A9F4F20E030E08C
:1046500040E251E4FC01608171818281938192D5B5
:10466000DC01CB018E010D591F4FBC01CD01A8D437
:10467000DC01CB01F8019183808324C0CE018B59EA
:104680009F4F20E731E0FC0131832083CE018B591D
:104690009F4FFC01808191810197F1F79E012B5979
:1046A0003F4FF90191838083CE018D599F4F9E0129
:1046B0002D593F4FF9012081318121503109FC01F1
:1046C00031832083CE018D599F4FFC0180819181E0
:1046D000892BA1F62BC08E010D591F4FCE01815A97
:1046E0009F4FFC01608171818281938169D4DC01DB
:1046F000CB01F80191838083CE0189599F4F9E01A0
:104700002D593F4FF90120813181FC0131832083F4
:10471000CE0189599F4FFC01808191810197F1F76A
:104720009E0129593F4FF901918380830E94E61130
:1047300080910414909105140196880F991F855754
:104740009B4EFC012081318189A99AA9281739073C
:1047500009F02ECF0E949E109E0127593F4F80E006
:1047600090E0AAEFB3E4F90180839183A283B3833D
:104770008E0103591F4FCE0187599F4F26E636E61B
:1047800046E655E4FC016081718182819381FAD40F
:10479000DC01CB01F80180839183A283B383CE0136
:1047A00083599F4F20E030E040E85FE3FC016081E7
:1047B00071818281938198D388234CF4CE018F58E4
:1047C0009F4F21E030E0FC013183208369C0CE019E
:1047D00083599F4F20E03FEF4FE757E4FC01608192
:1047E000718182819381CAD418160CF048C0CE0121
:1047F00087599F4F20E030E040E251E4FC016081A6
:10480000718182819381BED4DC01CB018E010F586E
:104810001F4FBC01CD01D4D3DC01CB01F801918342
:10482000808324C0CE018D589F4F20E731E0FC01EA
:1048300031832083CE018D589F4FFC01808191816F
:104840000197F1F79E012D583F4FF9019183808325
:10485000CE018F589F4F9E012F583F4FF901208165
:10486000318121503109FC0131832083CE018F58E1
:104870009F4FFC0180819181892BA1F62BC08E0175
:104880000F581F4FCE0183599F4FFC0160817181EA
:104890008281938195D3DC01CB01F80191838083E0
:1048A000CE018B589F4F9E012F583F4FF901208119
:1048B0003181FC0131832083CE018B589F4FFC0155
:1048C000808191810197F1F79E012B583F4FF901AB
:1048D000918380830E94B5108091041490910514F7
:1048E0000196909305148093041486EC90E02FEFCA
:1048F000FC0120831E861D867AC24BA55CA52B8DEC
:104900003C8D898D9A8DB9010E9414130E94C211A9
:104910009E0129583F4F80E090E0A6E9B3E4F901F9
:1049200080839183A283B3838E0105581F4FCE01EC
:1049300089589F4F26E636E646E655E4FC0160813D
:104940007181828193811ED4DC01CB01F8018083C7
:104950009183A283B383CE0185589F4F20E030E03E
:1049600040E85FE3FC016081718182819381BCD268
:1049700088234CF4CE0181589F4F21E030E0FC01A8
:104980003183208369C0CE0185589F4F20E03FEFDF
:104990004FE757E4FC016081718182819381EED3FE
:1049A00018160CF048C0CE0189589F4F20E030E027
:1049B00040E251E4FC016081718182819381E2D304
:1049C000DC01CB018E0101581F4FBC01CD01F8D293
:1049D000DC01CB01F8019183808324C0CE018F5785
:1049E0009F4F20E731E0FC0131832083CE018F57B8
:1049F0009F4FFC01808191810197F1F79E012F5714
:104A00003F4FF90191838083CE0181589F4F9E01D2
:104A100021583F4FF9012081318121503109FC019A
:104A200031832083CE0181589F4FFC018081918189
:104A3000892BA1F62BC08E0101581F4FCE0185583E
:104A40009F4FFC016081718182819381B9D2DC0129
:104A5000CB01F80191838083CE018D579F4F9E013A
:104A600021583F4FF90120813181FC01318320839E
:104A7000CE018D579F4FFC01808191810197F1F705
:104A80009E012D573F4FF901918380830E94B510FD
:104A900066EE86EE0E948A118B8D9C8D9A8F898F8F
:104AA0008D859E8501969E878D8789A59AA5092E5D
:104AB000000CAA0BBB0BBC01CD01B0D2DC01CB01B9
:104AC0002BA93CA94DA95EA9BC01CD0157D318164D
:104AD0000CF074C189A59AA5092E000CAA0BBB0B7A
:104AE000BC01CD019BD2DC01CB012FA938AD49AD72
:104AF0005AADBC01CD0142D318160CF05FC189A597
:104B00009AA5092E000CAA0BBB0BBC01CD0186D2C5
:104B1000DC01CB012BAD3CAD4DAD5EADBC01CD019B
:104B20002DD318160CF04AC189A59AA5092E000CA0
:104B3000AA0BBB0BBC01CD0171D2DC01CB012981D9
:104B40003A814B815C81BC01CD01CED1181674F144
:104B500089A59AA5092E000CAA0BBB0BBC01CD019F
:104B60005DD2DC01CB0129853A854B855C85BC0192
:104B7000CD0104D31816D4F489A59AA5092E000CEA
:104B8000AA0BBB0BBC01CD0149D2DC01CB012D81AD
:104B90003E814F815885BC01CD01F0D2181634F406
:104BA0000E94EF1166EE86EE0E948A1189A59AA5F1
:104BB000092E000CAA0BBB0BBC01CD012FD2DC01CE
:104BC000CB0129813A814B815C81BC01CD01D6D2D8
:104BD000181674F589A59AA5092E000CAA0BBB0B13
:104BE000BC01CD011BD2DC01CB0129853A854B8567
:104BF0005C85BC01CD01C2D21816D4F489A59AA552
:104C0000092E000CAA0BBB0BBC01CD0107D2DC01A5
:104C1000CB012D813E814F815885BC01CD0164D1EE
:104C2000181634F00E94F81166EE86EE0E948A1182
:104C300089A59AA5092E000CAA0BBB0BBC01CD01BE
:104C4000EDD1DC01CB0129813A814B815C81BC0132
:104C5000CD0194D2181674F589A59AA5092E000CD9
:104C6000AA0BBB0BBC01CD01D9D1DC01CB0129853D
:104C70003A854B855C85BC01CD0136D11816D4F040
:104C800089A59AA5092E000CAA0BBB0BBC01CD016E
:104C9000C5D1DC01CB012D813E814F815885BC01FE
:104CA000CD016CD2181634F40E94EF1166EE86EE38
:104CB0000E948A1189A59AA5092E000CAA0BBB0B8C
:104CC000BC01CD01ABD1DC01CB0129813A814B8103
:104CD0005C81BC01CD0152D2181674F589A59AA544
:104CE000092E000CAA0BBB0BBC01CD0197D1DC0136
:104CF000CB0129853A854B855C85BC01CD01F4D07B
:104D00001816D4F089A59AA5092E000CAA0BBB0B86
:104D1000BC01CD0183D1DC01CB012D813E814F81CE
:104D20005885BC01CD01E0D0181634F00E94F8116E
:104D300066EE86EE0E948A1189A59AA5092E000CBE
:104D4000AA0BBB0BBC01CD0169D1DC01CB012981D0
:104D50003A814B815C81BC01CD01C6D0181674F13B
:104D600089A59AA5092E000CAA0BBB0BBC01CD018D
:104D700055D1DC01CB0129853A854B855C85BC0189
:104D8000CD01B2D01816D4F089A59AA5092E000C31
:104D9000AA0BBB0BBC01CD0141D1DC01CB012D81A4
:104DA0003E814F815885BC01CD01E8D1181634F4FD
:104DB0000E94EF1166EE86EE0E948A118BA99CA9D3
:104DC000ADA9BEA989839A83AB83BC838BAD9CAD0F
:104DD000ADADBEAD8D839E83AF83B8878FA998ADEF
:104DE000A9ADBAAD89879A87AB87BC87F8C88B898C
:104DF0009C8901969C8B8B8B8B899C8981970CF469
:104E000066C880E090E0CA53DF4F0FB6F894DEBF6B
:104E10000FBECDBFDF91CF911F910F9108955058D4
:104E2000BB27AA270ED070C161D130F066D120F027
:104E300031F49F3F11F41EF456C10EF4E095E7FBE8
:104E40004CC1E92F72D180F3BA1762077307840748
:104E5000950718F071F49EF58AC10EF4E0950B2EBB
:104E6000BA2FA02D0B01B90190010C01CA01A001BC
:104E70001124FF27591B99F0593F50F4503E68F117
:104E80001A16F040A22F232F342F4427585FF3CF58
:104E9000469537952795A795F0405395C9F77EF429
:104EA0001F16BA0B620B730B840BBAF09150A1F072
:104EB000FF0FBB1F661F771F881FC2F70EC0BA0FF8
:104EC000621F731F841F48F4879577956795B79580
:104ED000F7959E3F08F0B3CF9395880F08F0992778
:104EE000EE0F979587950895D4D008F481E0089542
:104EF0000CD00AC102D140F0F9D030F021F45F3F6C
:104F000019F0EBC0511134C1EEC00FD198F39923C1
:104F1000C9F35523B1F3951B550BBB27AA2762177D
:104F20007307840738F09F5F5F4F220F331F441FC2
:104F3000AA1FA9F333D00E2E3AF0E0E830D09150FA
:104F40005040E695001CCAF729D0FE2F27D0660FE7
:104F5000771F881FBB1F261737074807AB07B0E826
:104F600009F0BB0B802DBF01FF2793585F4F2AF03C
:104F70009E3F510568F0B1C0FBC05F3FECF3983E27
:104F8000DCF3869577956795B795F7959F5FC9F799
:104F9000880F911D9695879597F90895E1E0660F22
:104FA000771F881FBB1F621773078407BA0720F09B
:104FB000621B730B840BBA0BEE1F88F7E095089504
:104FC000BCD088F09F5790F0B92F9927B751A0F027
:104FD000D1F0660F771F881F991F1AF0BA95C9F78D
:104FE00012C0B13081F0C3D0B1E00895C0C0672FC6
:104FF000782F8827B85F39F0B93FCCF3869577953D
:105000006795B395D9F73EF4909580957095619525
:105010007F4F8F4F9F4F0895E89409C097FB3EF450
:1050200090958095709561957F4F8F4F9F4F9923F5
:10503000A9F0F92F96E9BB279395F6958795779573
:105040006795B795F111F8CFFAF4BB0F11F460FF33
:105050001BC06F5F7F4F8F4F9F4F16C0882311F08B
:1050600096E911C0772321F09EE8872F762F05C09F
:10507000662371F096E8862F70E060E02AF09A953A
:10508000660F771F881FDAF7880F9695879597F92F
:105090000895990F0008550FAA0BE0E8FEEF1616C9
:1050A0001706E807F907C0F012161306E407F5071C
:1050B00098F0621B730B840B950B39F40A2661F090
:1050C000232B242B252B21F408950A2609F4A14033
:1050D000A6958FEF811D811D089597F99F6780E840
:1050E00070E060E008959FEF80EC089500240A943A
:1050F0001616170618060906089500240A941216B3
:105100001306140605060895092E0394000C11F4E5
:10511000882352F0BB0F40F4BF2B11F460FF04C092
:105120006F5F7F4F8F4F9F4F089557FD9058440FEB
:10513000551F59F05F3F71F04795880F97FB991FF6
:1051400061F09F3F79F087950895121613061406B3
:10515000551FF2CF4695F1DF08C016161706180640
:10516000991FF1CF86957105610508940895E8941B
:10517000BB2766277727CB0197F908958ADF08F4C4
:105180008FEF08950BD0C0CFB1DF28F0B6DF18F055
:10519000952309F0A2CFA7CF1124EACFC6DFA0F351
:1051A000959FD1F3950F50E0551F629FF001729FBC
:1051B000BB27F00DB11D639FAA27F00DB11DAA1FDB
:1051C000649F6627B00DA11D661F829F2227B00D28
:1051D000A11D621F739FB00DA11D621F839FA00DB3
:1051E000611D221F749F3327A00D611D231F849F03
:1051F000600D211D822F762F6A2F11249F5750405A
:105200008AF0E1F088234AF0EE0FFF1FBB1F661FF4
:10521000771F881F91505040A9F79E3F510570F0AD
:105220005CCFA6CF5F3FECF3983EDCF38695779595
:105230006795B795F795E7959F5FC1F7FE2B880FA8
:10524000911D9695879597F90895A29FB001B39FF8
:10525000C001A39F700D811D1124911DB29F700D7F
:0C526000811D1124911D0895F894FFCFCA
:10526C000F2701000F270F270F270F270F270F27B7
:10527C000F270F270F270F270F270F270F270F2772
:10528C000F270F270F270F270F270F270F27010097
:10529C000F270F270F270F270F270F270F270F2752
:1052AC000F270F270F270F270F270F270F270F2742
:1052BC000F270F270F270F270F270F270F270F2732
:1052CC0001000F2701000F270F270F270F270F278C
:1052DC000F270F270F270F270F270F270F270F2712
:1052EC000F270F270F270F270F270F270F270F2702
:1052FC000F270F270F270F270F270F270F270F27F2
:10530C000F270F270F270F270F270F270F270F27E1
:10531C000F270F270F270F270F270F270F270F27D1
:10532C000F2701000F2701000F270F270F270F272B
:10533C000F270F270F270F270F270F270F270F27B1
:10534C000F270F270F270F270F270F270F270F27A1
:10535C000F270F270F270F270F270F270F270F2791
:10536C000F270F27010001000F270F270F270F27EB
:10537C000F270F270F270F270F270F270F270F2771
:10538C000F270F2701000F2701000F270F270F27CB
:10539C000F270F270F270F270F270F270F270F2751
:1053AC000F270F270F270F270F270F270F270F2741
:1053BC000F270F270F270F270F270F270F270F2731
:1053CC000F270F270F270F270F270F270F270F2721
:1053DC000F270F270F270F270F270F270F270F2711
:1053EC000F270F270F2701000F2701000F270F276B
:1053FC000F270F270F270F270F270F270F270F27F1
:10540C000F270F270F270F270F270F270F270F27E0
:10541C000F270F270F270F270F270F270F270F27D0
:10542C000F270F270F270F270F270F270F270F27C0
:10543C000F270F270F270F270F270F270F270F27B0
:10544C000F270F270F270F2701000F2701000F270A
:10545C000F270F270F270F270F270F270F270F2790
:10546C000F270F270F270F270F270F270F270F2780
:10547C000F270F270F270F270F270F270F270F2770
:10548C000F270F270F270F270F270F270F270F2760
:10549C000F270F270F270F270F270F270F270F2750
:1054AC000F270F270F270F270F2701000F270100AA
:1054BC000F270F270F270F270F270F270F270F2730
:1054CC000F270F270F270F270F270F270F270F2720
:1054DC000F270F270F270F270F270F270F270F2710
:1054EC00010001000F270F270F270F270F270F276A
:1054FC000F270F270F270F270F270F270F270F27F0
:10550C000F270F270F270F270F270F2701000F2714
:10551C0001000F270F270F270F270F270F270F2704
:10552C000F270F270F270F270F270F270F270F27BF
:10553C000F270F270F270F270F270F270F270F27AF
:10554C000F270F270F270F270F270F270F270F279F
:10555C000F270F270F270F270F270F270F270F278F
:10556C000F270F270F270F270F270F270F270100B4
:10557C000F2701000F270F270F270F270F270F27A4
:10558C000F270F270F270F270F270F270F270F275F
:10559C000F270F270F270F270F270F270F270F274F
:1055AC000F270F270F270F270F270F270F270F273F
:1055BC000F270F270F270F270F270F270F270F272F
:1055CC000F270F270F270F270F270F270F270F271F
:1055DC0001000F2701000F270F270F270F270F2779
:1055EC000F270F270F270F270F270F270F270F27FF
:1055FC000F270F270F270F270F270F270F270F27EF
:10560C000F270F270F270F270F270F270F270F27DE
:10561C000F270F270F270F270F270F270F270F27CE
:10562C000F270F270F270F270F270F270F270F27BE
:10563C000F2701000F2701000F270F270F270F2718
:10564C000F270F270F270F270F270F270F270F279E
:10565C000F270F270F270F270F270F2701000100F8
:10566C000F270F270F270F270F270F270F270F277E
:10567C000F270F270F270F270F270F270F270F276E
:10568C000F270F270F270F270F270F270F270F275E
:10569C000F270F2701000F2701000F270F270F27B8
:1056AC000F270F270F270F270F270F270F270F273E
:1056BC000F270F270F270F270F270F270F270F272E
:1056CC000F270F270F270F270F270F270F270F271E
:1056DC000F270F270F270F270F270F270F270F270E
:1056EC000F270F270F270F270F270F270F270F27FE
:1056FC000F270F270F2701000F2701000F270F2758
:10570C000F270F270F270F270F270F270F270F27DD
:10571C000F270F270F270F270F270F270F270F27CD
:10572C000F270F270F270F270F270F270F270F27BD
:10573C000F270F270F270F270F270F270F270F27AD
:10574C000F270F270F270F270F270F270F270F279D
:10575C000F270F270F270F2701000F2701000F27F7
:10576C000F270F270F270F270F270F270F270F277D
:10577C000F270F270F270F270F270F270F270F276D
:10578C000F270F270F270F270F270F270F270F275D
:10579C000F270F270F270F270F270F270F270F274D
:1057AC000F270F270F270F270F270F270F270F273D
:1057BC000F270F270F270F270F2701000F27010097
:1057CC000F270F270F270F270F270F270F270F271D
:1057DC000F270F270F270F27010001000F270F2777
:1057EC000F270F270F270F270F270F270F270F27FD
:1057FC000F270F270F270F270F270F270F270F27ED
:10580C000F270F270F270F270F270F270F270F27DC
:10581C000F270F270F270F270F270F2701000F2701
:10582C0001000F270F270F270F270F270F270F27F1
:10583C000F270F270F270F270F270F270F270F27AC
:10584C000F270F270F270F270F270F270F270F279C
:10585C000F270F270F270F270F270F270F270F278C
:10586C000F270F270F270F270F270F270F270F277C
:10587C000F270F270F270F270F270F270F270100A1
:10588C000F2701000F270F270F270F270F270F2791
:10589C000F270F270F270F270F270F270F270F274C
:1058AC000F270F270F270F270F270F270F270F273C
:1058BC000F270F270F270F270F270F270F270F272C
:1058CC000F270F270F270F270F270F270F270F271C
:1058DC000F270F270F270F270F270F270F270F270C
:1058EC0001000F2701000F270F270F270F270F2766
:1058FC000F270F270F270F270F270F270F270F27EC
:10590C000F270F270F270F270F270F270F270F27DB
:10591C000F270F270F270F270F270F270F270F27CB
:10592C000F270F270F270F270F270F270F270F27BB
:10593C000F270F270F270F270F270F270F270F27AB
:10594C000F2701000F2701000F270F270F270F2705
:10595C000F270F27010001000F270F270F270F27F5
:10596C000F270F270F270F270F270F270F270F277B
:10597C000F270F270F270F270F270F270F270F276B
:10598C000F270F270F270F270F270F270F270F275B
:10599C000F270F270F270F270F270F270F270F274B
:1059AC000F270F2701000F2701000F270F270F27A5
:1059BC000F270F270F270F270F270F270F270F272B
:1059CC000F270F270F270F270F270F270F270F271B
:1059DC000F270F270F270F270F270F270F270F270B
:1059EC000F270F270F270F270F270F270F270F27FB
:1059FC000F270F270F270F270F270F270F270F27EB
:105A0C000F270F270F2701000F2701000F270F2744
:105A1C000F270F270F270F270F270F270F270F27CA
:105A2C000F270F270F270F270F270F270F270F27BA
:105A3C000F270F270F270F270F270F270F270F27AA
:105A4C000F270F270F270F270F270F270F270F279A
:105A5C000F270F270F270F270F270F270F270F278A
:105A6C000F270F270F270F2701000F2701000F27E4
:105A7C000F270F270F270F270F270F270F270F276A
:105A8C000F270F270F270F270F270F270F270F275A
:105A9C000F270F270F270F270F270F270F270F274A
:105AAC000F270F270F270F270F270F270F270F273A
:105ABC000F270F270F270F270F270F270F270F272A
:105ACC000F270F270F270F270F2701000F27010084
